{
	"data": {
		"bytecode": {
			"linkReferences": {},
			"object": "608060405234801561001057600080fd5b5060405161001d90610111565b60408082526004908201527f6e616d650000000000000000000000000000000000000000000000000000000060608201526080602082018190526006908201527f73796d626f6c000000000000000000000000000000000000000000000000000060a082015260c001604051809103906000f0801580156100a2573d6000803e3d6000fd5b5060038054600160a060020a031916600160a060020a03929092169190911790556040516100cf9061011e565b604051809103906000f0801580156100eb573d6000803e3d6000fd5b5060048054600160a060020a031916600160a060020a039290921691909117905561012b565b610e53806112a883390190565b611940806120fb83390190565b61116e8061013a6000396000f3fe608060405234801561001057600080fd5b506004361061011d576000357c0100000000000000000000000000000000000000000000000000000000900480636c3fbb2d116100b45780638e24df9e116100835780638e24df9e1461025b578063a63191671461026e578063c57c8ebd14610281578063e6978b50146102b057600080fd5b80636c3fbb2d146102075780638a7ff2f61461021a5780638d1cb8b5146102225780638db87c981461023557600080fd5b80632a9efc7e116100f05780632a9efc7e146101ae5780633901d2d4146101c157806340273cab146101ec57806368f81fe0146101f457600080fd5b8063013cf08b146101225780630289cac11461015157806305ff130a1461017957806314f0865a1461018e575b600080fd5b610135610130366004610e18565b6102c6565b6040516101489796959493929190610e7e565b60405180910390f35b61016461015f366004610ee9565b6103bd565b60405163ffffffff9091168152602001610148565b61018c610187366004610ee9565b6103f8565b005b6101a161019c366004610ee9565b610445565b6040516101489190610f0b565b6101646101bc366004610ee9565b610504565b6004546101d490600160a060020a031681565b604051600160a060020a039091168152602001610148565b600254610164565b61018c610202366004610f1e565b61054d565b6003546101d490600160a060020a031681565b610164610820565b61018c610230366004610f6a565b61088d565b61016461024336600461101f565b60016020526000908152604090205463ffffffff1681565b61018c610269366004610ee9565b610b02565b61016461027c366004610ee9565b610d3c565b61016461028f36600461101f565b600160a060020a031660009081526001602052604090205463ffffffff1690565b6102b8600a81565b604051908152602001610148565b600281815481106102d657600080fd5b6000918252602090912060059091020180546001820154600283015460038401805463ffffffff85169650640100000000909404600160a060020a031694929391929161032290611048565b80601f016020809104026020016040519081016040528092919081815260200182805461034e90611048565b801561039b5780601f106103705761010080835404028352916020019161039b565b820191906000526020600020905b81548152906001019060200180831161037e57829003601f168201915b5050506004909301549192505063ffffffff8082169164010000000090041687565b600060028263ffffffff16815481106103d8576103d8611080565b600091825260209091206004600590920201015463ffffffff1692915050565b600160028263ffffffff168154811061041357610413611080565b906000526020600020906005020160040160046101000a81548163ffffffff021916908363ffffffff16021790555050565b6060600060028363ffffffff168154811061046257610462611080565b9060005260206000209060050201600301805461047e90611048565b80601f01602080910402602001604051908101604052809291908181526020018280546104aa90611048565b80156104f75780601f106104cc576101008083540402835291602001916104f7565b820191906000526020600020905b8154815290600101906020018083116104da57829003601f168201915b5093979650505050505050565b600060028263ffffffff168154811061051f5761051f611080565b90600052602060002090600502016002015442111561054057506001919050565b506000919050565b919050565b60028263ffffffff168154811061056657610566611080565b90600052602060002090600502016001015442101580156105b1575060028263ffffffff168154811061059b5761059b611080565b9060005260206000209060050201600201544211155b61062b5760405160e560020a62461bcd02815260206004820152602860248201527f5468652070726f706f73616c206973206e6f7420696e2074686520766f74696e60448201527f6720706572696f6400000000000000000000000000000000000000000000000060648201526084015b60405180910390fd5b6001333110156106805760405160e560020a62461bcd02815260206004820152600f60248201527f6e6f20656e6f756768206d6f6e657900000000000000000000000000000000006044820152606401610622565b33600160a060020a031660028363ffffffff16815481106106a3576106a3611080565b60009182526020909120600590910201546401000000009004600160a060020a031614156107165760405160e560020a62461bcd02815260206004820152601760248201527f796f752063616e277420766f746520796f757273656c660000000000000000006044820152606401610622565b8060028363ffffffff168154811061073057610730611080565b600091825260208220600460059092020101805490919061075890849063ffffffff166110b2565b825463ffffffff9182166101009390930a9283029190920219909116179055506003546040517f23b872dd00000000000000000000000000000000000000000000000000000000815233600482015230602482015260016044820152600160a060020a03909116906323b872dd90606401602060405180830381600087803b1580156107e357600080fd5b505af11580156107f7573d6000803e3d6000fd5b505050506040513d601f19601f8201168201806040525081019061081b91906110da565b505050565b600080805b60025463ffffffff82161015610887574260028263ffffffff168154811061084f5761084f611080565b90600052602060002090600502016002015410156108755781610871816110fc565b9250505b8061087f816110fc565b915050610825565b50919050565b60004261089a8382611120565b6040805160e0810182526002805463ffffffff808216845233602080860191825295850188815260608601888152608087018d8152600060a0890181905260c0890181905260018701885596909652865160059095027f405787fa12a823e0f2b7631cc41b3ba8828b3321ca811111fa75cd3aa3bb5ace810180549451600160a060020a03166401000000000277ffffffffffffffffffffffffffffffffffffffffffffffff199095169690951695909517929092178355517f405787fa12a823e0f2b7631cc41b3ba8828b3321ca811111fa75cd3aa3bb5acf840155517f405787fa12a823e0f2b7631cc41b3ba8828b3321ca811111fa75cd3aa3bb5ad083015591518051959750929491936109d8937f405787fa12a823e0f2b7631cc41b3ba8828b3321ca811111fa75cd3aa3bb5ad190920192910190610d7f565b5060a08201516004909101805460c09093015163ffffffff9081166401000000000267ffffffffffffffff199094169216919091179190911790556002546040517f944f5ef0a446d54c41ea39dac07de1fd2150ec3346cbff6c627d1ffba048676c91610a509163ffffffff91909116815260200190565b60405180910390a16003546040517f23b872dd00000000000000000000000000000000000000000000000000000000815233600482015230602482015260026044820152600160a060020a03909116906323b872dd90606401602060405180830381600087803b158015610ac357600080fd5b505af1158015610ad7573d6000803e3d6000fd5b505050506040513d601f19601f82011682018060405250810190610afb91906110da565b5050505050565b60028163ffffffff1681548110610b1b57610b1b611080565b906000526020600020906005020160020154421015610b7f5760405160e560020a62461bcd02815260206004820152601860248201527f5468652070726f706f73616c206973206e6f74206f76657200000000000000006044820152606401610622565b600060028263ffffffff1681548110610b9a57610b9a611080565b600091825260209091206004600590920201015463ffffffff161115610d395760035460028054600160a060020a039092169163a9059cbb919063ffffffff8516908110610bea57610bea611080565b600091825260209091206005909102015460405163ffffffff83167c0100000000000000000000000000000000000000000000000000000000028152640100000000909104600160a060020a0316600482015260026024820152604401602060405180830381600087803b158015610c6157600080fd5b505af1158015610c75573d6000803e3d6000fd5b505050506040513d601f19601f82011682018060405250810190610c9991906110da565b50600180600060028463ffffffff1681548110610cb857610cb8611080565b60009182526020808320600590920290910154600160a060020a0364010000000090910416835282019290925260400181208054909190610d0090849063ffffffff166110b2565b92506101000a81548163ffffffff021916908363ffffffff160217905550600160028263ffffffff168154811061041357610413611080565b50565b600060028263ffffffff1681548110610d5757610d57611080565b6000918252602090912060059091020160040154640100000000900463ffffffff1692915050565b828054610d8b90611048565b90600052602060002090601f016020900481019282610dad5760008555610df3565b82601f10610dc657805160ff1916838001178555610df3565b82800160010185558215610df3579182015b82811115610df3578251825591602001919060010190610dd8565b50610dff929150610e03565b5090565b5b80821115610dff5760008155600101610e04565b600060208284031215610e2a57600080fd5b5035919050565b6000815180845260005b81811015610e5757602081850181015186830182015201610e3b565b81811115610e69576000602083870101525b50601f01601f19169290920160200192915050565b600063ffffffff808a168352600160a060020a038916602084015287604084015286606084015260e06080840152610eb960e0840187610e31565b94811660a08401529290921660c0909101525095945050505050565b803563ffffffff8116811461054857600080fd5b600060208284031215610efb57600080fd5b610f0482610ed5565b9392505050565b602081526000610f046020830184610e31565b60008060408385031215610f3157600080fd5b610f3a83610ed5565b9150610f4860208401610ed5565b90509250929050565b60e060020a634e487b7102600052604160045260246000fd5b60008060408385031215610f7d57600080fd5b823567ffffffffffffffff80821115610f9557600080fd5b818501915085601f830112610fa957600080fd5b813581811115610fbb57610fbb610f51565b604051601f8201601f19908116603f01168101908382118183101715610fe357610fe3610f51565b81604052828152886020848701011115610ffc57600080fd5b826020860160208301376000602093820184015298969091013596505050505050565b60006020828403121561103157600080fd5b8135600160a060020a0381168114610f0457600080fd5b60028104600182168061105c57607f821691505b602082108114156108875760e060020a634e487b7102600052602260045260246000fd5b60e060020a634e487b7102600052603260045260246000fd5b60e060020a634e487b7102600052601160045260246000fd5b600063ffffffff8083168185168083038211156110d1576110d1611099565b01949350505050565b6000602082840312156110ec57600080fd5b81518015158114610f0457600080fd5b600063ffffffff8083168181141561111657611116611099565b6001019392505050565b6000821982111561113357611133611099565b50019056fea2646970667358221220bc3076cf9afc6558038d3c63d521a331f7ebe7125a271d836a387e212b33216a64736f6c6343000809003360806040523480156200001157600080fd5b5060405162000e5338038062000e538339810160408190526200003491620001fa565b8151829082906200004d9060039060208501906200006e565b508051620000639060049060208401906200006e565b5050505050620002ba565b8280546200007c9062000264565b90600052602060002090601f016020900481019282620000a05760008555620000eb565b82601f10620000bb57805160ff1916838001178555620000eb565b82800160010185558215620000eb579182015b82811115620000eb578251825591602001919060010190620000ce565b50620000f9929150620000fd565b5090565b5b80821115620000f95760008155600101620000fe565b7f4e487b7100000000000000000000000000000000000000000000000000000000600052604160045260246000fd5b600082601f8301126200015557600080fd5b81516001604060020a038082111562000172576200017262000114565b604051601f8301601f19908116603f011681019082821181831017156200019d576200019d62000114565b81604052838152602092508683858801011115620001ba57600080fd5b600091505b83821015620001de5785820183015181830184015290820190620001bf565b83821115620001f05760008385830101525b9695505050505050565b600080604083850312156200020e57600080fd5b82516001604060020a03808211156200022657600080fd5b620002348683870162000143565b935060208501519150808211156200024b57600080fd5b506200025a8582860162000143565b9150509250929050565b6002810460018216806200027957607f821691505b60208210811415620002b4577f4e487b7100000000000000000000000000000000000000000000000000000000600052602260045260246000fd5b50919050565b610b8980620002ca6000396000f3fe608060405234801561001057600080fd5b50600436106100ec576000357c0100000000000000000000000000000000000000000000000000000000900480633884d635116100a957806395d89b411161008357806395d89b41146101c9578063a457c2d7146101d1578063a9059cbb146101e4578063dd62ed3e146101f757600080fd5b80633884d63514610183578063395093511461018d57806370a08231146101a057600080fd5b806306fdde03146100f1578063095ea7b31461010f57806318160ddd14610132578063203e585d1461014457806323b872dd14610161578063313ce56714610174575b600080fd5b6100f961020a565b6040516101069190610994565b60405180910390f35b61012261011d366004610a05565b61029c565b6040519015158152602001610106565b6002545b604051908152602001610106565b61014c6102b4565b60405163ffffffff9091168152602001610106565b61012261016f366004610a2f565b6102dd565b60405160128152602001610106565b61018b610301565b005b61012261019b366004610a05565b6103b7565b6101366101ae366004610a6b565b600160a060020a031660009081526020819052604090205490565b6100f96103d9565b6101226101df366004610a05565b6103e8565b6101226101f2366004610a05565b61047e565b610136610205366004610a8d565b61048c565b60606003805461021990610ac0565b80601f016020809104026020016040519081016040528092919081815260200182805461024590610ac0565b80156102925780601f1061026757610100808354040283529160200191610292565b820191906000526020600020905b81548152906001019060200180831161027557829003601f168201915b5050505050905090565b6000336102aa8185856104b7565b5060019392505050565b3360009081526005602052604081205460ff161515600114156102d75750600190565b50600090565b6000336102eb858285610615565b6102f6858585610692565b506001949350505050565b3360009081526005602052604090205460ff161561038f5760405160e560020a62461bcd02815260206004820152602560248201527f5468697320757365722068617320636c61696d65642061697264726f7020616c60448201527f726561647900000000000000000000000000000000000000000000000000000060648201526084015b60405180910390fd5b61039b336127106108b2565b336000908152600560205260409020805460ff19166001179055565b6000336102aa8185856103ca838361048c565b6103d49190610b14565b6104b7565b60606004805461021990610ac0565b600033816103f6828661048c565b9050838110156104715760405160e560020a62461bcd02815260206004820152602560248201527f45524332303a2064656372656173656420616c6c6f77616e63652062656c6f7760448201527f207a65726f0000000000000000000000000000000000000000000000000000006064820152608401610386565b6102f682868684036104b7565b6000336102aa818585610692565b600160a060020a03918216600090815260016020908152604080832093909416825291909152205490565b600160a060020a0383166105355760405160e560020a62461bcd028152602060048201526024808201527f45524332303a20617070726f76652066726f6d20746865207a65726f2061646460448201527f72657373000000000000000000000000000000000000000000000000000000006064820152608401610386565b600160a060020a0382166105b45760405160e560020a62461bcd02815260206004820152602260248201527f45524332303a20617070726f766520746f20746865207a65726f20616464726560448201527f73730000000000000000000000000000000000000000000000000000000000006064820152608401610386565b600160a060020a0383811660008181526001602090815260408083209487168084529482529182902085905590518481527f8c5be1e5ebec7d5bd14f71427d1e84f3dd0314c0f7b2291e5b200ac8c7c3b925910160405180910390a3505050565b6000610621848461048c565b9050600019811461068c578181101561067f5760405160e560020a62461bcd02815260206004820152601d60248201527f45524332303a20696e73756666696369656e7420616c6c6f77616e63650000006044820152606401610386565b61068c84848484036104b7565b50505050565b600160a060020a0383166107115760405160e560020a62461bcd02815260206004820152602560248201527f45524332303a207472616e736665722066726f6d20746865207a65726f20616460448201527f64726573730000000000000000000000000000000000000000000000000000006064820152608401610386565b600160a060020a0382166107905760405160e560020a62461bcd02815260206004820152602360248201527f45524332303a207472616e7366657220746f20746865207a65726f206164647260448201527f65737300000000000000000000000000000000000000000000000000000000006064820152608401610386565b600160a060020a038316600090815260208190526040902054818110156108225760405160e560020a62461bcd02815260206004820152602660248201527f45524332303a207472616e7366657220616d6f756e742065786365656473206260448201527f616c616e636500000000000000000000000000000000000000000000000000006064820152608401610386565b600160a060020a03808516600090815260208190526040808220858503905591851681529081208054849290610859908490610b14565b9250508190555082600160a060020a031684600160a060020a03167fddf252ad1be2c89b69c2b068fc378daa952ba7f163c4a11628f55a4df523b3ef846040516108a591815260200190565b60405180910390a361068c565b600160a060020a03821661090b5760405160e560020a62461bcd02815260206004820152601f60248201527f45524332303a206d696e7420746f20746865207a65726f2061646472657373006044820152606401610386565b806002600082825461091d9190610b14565b9091555050600160a060020a0382166000908152602081905260408120805483929061094a908490610b14565b9091555050604051818152600160a060020a038316906000907fddf252ad1be2c89b69c2b068fc378daa952ba7f163c4a11628f55a4df523b3ef9060200160405180910390a35050565b600060208083528351808285015260005b818110156109c1578581018301518582016040015282016109a5565b818111156109d3576000604083870101525b50601f01601f1916929092016040019392505050565b8035600160a060020a0381168114610a0057600080fd5b919050565b60008060408385031215610a1857600080fd5b610a21836109e9565b946020939093013593505050565b600080600060608486031215610a4457600080fd5b610a4d846109e9565b9250610a5b602085016109e9565b9150604084013590509250925092565b600060208284031215610a7d57600080fd5b610a86826109e9565b9392505050565b60008060408385031215610aa057600080fd5b610aa9836109e9565b9150610ab7602084016109e9565b90509250929050565b600281046001821680610ad457607f821691505b60208210811415610b0e577f4e487b7100000000000000000000000000000000000000000000000000000000600052602260045260246000fd5b50919050565b60008219821115610b4e577f4e487b7100000000000000000000000000000000000000000000000000000000600052601160045260246000fd5b50019056fea2646970667358221220f7790923fea62da4478b09a3bdac2059e0c14bb65f73e5b968fd66af04d424b464736f6c6343000809003360806040523480156200001157600080fd5b50604080518082018252600881527f47616d654974656d00000000000000000000000000000000000000000000000060208083019182528351808501909452600384527f49544d00000000000000000000000000000000000000000000000000000000009084015281519192916200008c91600091620000ab565b508051620000a2906001906020840190620000ab565b505050620001a7565b828054620000b99062000151565b90600052602060002090601f016020900481019282620000dd576000855562000128565b82601f10620000f857805160ff191683800117855562000128565b8280016001018555821562000128579182015b82811115620001285782518255916020019190600101906200010b565b50620001369291506200013a565b5090565b5b808211156200013657600081556001016200013b565b6002810460018216806200016657607f821691505b60208210811415620001a1577f4e487b7100000000000000000000000000000000000000000000000000000000600052602260045260246000fd5b50919050565b61178980620001b76000396000f3fe608060405234801561001057600080fd5b5060043610610107576000357c01000000000000000000000000000000000000000000000000000000009004806370a08231116100a9578063b88d4fde11610083578063b88d4fde146101fe578063c87b56dd14610211578063cf37834314610224578063e985e9c51461023757600080fd5b806370a08231146101c257806395d89b41146101e3578063a22cb465146101eb57600080fd5b8063095ea7b3116100e5578063095ea7b31461017457806323b872dd1461018957806342842e0e1461019c5780636352211e146101af57600080fd5b806301ffc9a71461010c57806306fdde0314610134578063081812fc14610149575b600080fd5b61011f61011a3660046111fc565b610273565b60405190151581526020015b60405180910390f35b61013c610310565b60405161012b9190611271565b61015c610157366004611284565b6103a2565b604051600160a060020a03909116815260200161012b565b6101876101823660046112b9565b6103c9565b005b6101876101973660046112e3565b610506565b6101876101aa3660046112e3565b61053a565b61015c6101bd366004611284565b610555565b6101d56101d036600461131f565b6105bd565b60405190815260200161012b565b61013c61065a565b6101876101f936600461133a565b610669565b61018761020c366004611405565b610678565b61013c61021f366004611284565b6106b3565b6101d5610232366004611481565b6107c4565b61011f6102453660046114e3565b600160a060020a03918216600090815260056020908152604080832093909416825291909152205460ff1690565b6000600160e060020a031982167f80ac58cd0000000000000000000000000000000000000000000000000000000014806102d65750600160e060020a031982167f5b5e139f00000000000000000000000000000000000000000000000000000000145b8061030a57507f01ffc9a700000000000000000000000000000000000000000000000000000000600160e060020a03198316145b92915050565b60606000805461031f90611516565b80601f016020809104026020016040519081016040528092919081815260200182805461034b90611516565b80156103985780601f1061036d57610100808354040283529160200191610398565b820191906000526020600020905b81548152906001019060200180831161037b57829003601f168201915b5050505050905090565b60006103ad826107fb565b50600090815260046020526040902054600160a060020a031690565b60006103d482610555565b905080600160a060020a031683600160a060020a031614156104665760405160e560020a62461bcd02815260206004820152602160248201527f4552433732313a20617070726f76616c20746f2063757272656e74206f776e6560448201527f720000000000000000000000000000000000000000000000000000000000000060648201526084015b60405180910390fd5b33600160a060020a038216148061048257506104828133610245565b6104f75760405160e560020a62461bcd02815260206004820152603e60248201527f4552433732313a20617070726f76652063616c6c6572206973206e6f7420746f60448201527f6b656e206f776e6572206e6f7220617070726f76656420666f7220616c6c0000606482015260840161045d565b6105018383610865565b505050565b61051033826108e0565b61052f5760405160e560020a62461bcd02815260040161045d90611554565b61050183838361095e565b61050183838360405180602001604052806000815250610678565b600081815260026020526040812054600160a060020a03168061030a5760405160e560020a62461bcd02815260206004820152601860248201527f4552433732313a20696e76616c696420746f6b656e2049440000000000000000604482015260640161045d565b6000600160a060020a03821661063e5760405160e560020a62461bcd02815260206004820152602960248201527f4552433732313a2061646472657373207a65726f206973206e6f74206120766160448201527f6c6964206f776e65720000000000000000000000000000000000000000000000606482015260840161045d565b50600160a060020a031660009081526003602052604090205490565b60606001805461031f90611516565b610674338383610b3e565b5050565b61068233836108e0565b6106a15760405160e560020a62461bcd02815260040161045d90611554565b6106ad84848484610c10565b50505050565b60606106be826107fb565b600082815260066020526040812080546106d790611516565b80601f016020809104026020016040519081016040528092919081815260200182805461070390611516565b80156107505780601f1061072557610100808354040283529160200191610750565b820191906000526020600020905b81548152906001019060200180831161073357829003601f168201915b50505050509050600061076e60408051602081019091526000815290565b9050805160001415610781575092915050565b8151156107b357808260405160200161079b9291906115b1565b60405160208183030381529060405292505050919050565b6107bc84610c46565b949350505050565b6000806107d060075490565b90506107dc8482610cb9565b6107e68184610e0e565b6107f4600780546001019055565b9392505050565b600081815260026020526040902054600160a060020a03166108625760405160e560020a62461bcd02815260206004820152601860248201527f4552433732313a20696e76616c696420746f6b656e2049440000000000000000604482015260640161045d565b50565b6000818152600460205260409020805473ffffffffffffffffffffffffffffffffffffffff1916600160a060020a03841690811790915581906108a782610555565b600160a060020a03167f8c5be1e5ebec7d5bd14f71427d1e84f3dd0314c0f7b2291e5b200ac8c7c3b92560405160405180910390a45050565b6000806108ec83610555565b905080600160a060020a031684600160a060020a031614806109335750600160a060020a0380821660009081526005602090815260408083209388168352929052205460ff165b806107bc575083600160a060020a031661094c846103a2565b600160a060020a031614949350505050565b82600160a060020a031661097182610555565b600160a060020a0316146109f05760405160e560020a62461bcd02815260206004820152602560248201527f4552433732313a207472616e736665722066726f6d20696e636f72726563742060448201527f6f776e6572000000000000000000000000000000000000000000000000000000606482015260840161045d565b600160a060020a038216610a6e5760405160e560020a62461bcd028152602060048201526024808201527f4552433732313a207472616e7366657220746f20746865207a65726f2061646460448201527f7265737300000000000000000000000000000000000000000000000000000000606482015260840161045d565b610a79600082610865565b600160a060020a0383166000908152600360205260408120805460019290610aa29084906115f9565b9091555050600160a060020a0382166000908152600360205260408120805460019290610ad0908490611610565b9091555050600081815260026020526040808220805473ffffffffffffffffffffffffffffffffffffffff1916600160a060020a0386811691821790925591518493918716917fddf252ad1be2c89b69c2b068fc378daa952ba7f163c4a11628f55a4df523b3ef91a4505050565b81600160a060020a031683600160a060020a03161415610ba35760405160e560020a62461bcd02815260206004820152601960248201527f4552433732313a20617070726f766520746f2063616c6c657200000000000000604482015260640161045d565b600160a060020a03838116600081815260056020908152604080832094871680845294825291829020805460ff191686151590811790915591519182527f17307eab39ab6107e8899845ad3d59bd9653f200f220920489ca2b5937696c31910160405180910390a3505050565b610c1b84848461095e565b610c2784848484610eba565b6106ad5760405160e560020a62461bcd02815260040161045d90611628565b6060610c51826107fb565b6000610c6860408051602081019091526000815290565b90506000815111610c8857604051806020016040528060008152506107f4565b80610c9284610ffc565b604051602001610ca39291906115b1565b6040516020818303038152906040529392505050565b600160a060020a038216610d125760405160e560020a62461bcd02815260206004820181905260248201527f4552433732313a206d696e7420746f20746865207a65726f2061646472657373604482015260640161045d565b600081815260026020526040902054600160a060020a031615610d7a5760405160e560020a62461bcd02815260206004820152601c60248201527f4552433732313a20746f6b656e20616c7265616479206d696e74656400000000604482015260640161045d565b600160a060020a0382166000908152600360205260408120805460019290610da3908490611610565b9091555050600081815260026020526040808220805473ffffffffffffffffffffffffffffffffffffffff1916600160a060020a03861690811790915590518392907fddf252ad1be2c89b69c2b068fc378daa952ba7f163c4a11628f55a4df523b3ef908290a45050565b600082815260026020526040902054600160a060020a0316610e9b5760405160e560020a62461bcd02815260206004820152602e60248201527f45524337323155524953746f726167653a2055524920736574206f66206e6f6e60448201527f6578697374656e7420746f6b656e000000000000000000000000000000000000606482015260840161045d565b600082815260066020908152604090912082516105019284019061114d565b6000600160a060020a0384163b15610ff1576040517f150b7a02000000000000000000000000000000000000000000000000000000008152600160a060020a0385169063150b7a0290610f17903390899088908890600401611685565b602060405180830381600087803b158015610f3157600080fd5b505af1925050508015610f61575060408051601f3d908101601f19168201909252610f5e918101906116c1565b60015b610fbe573d808015610f8f576040519150601f19603f3d011682016040523d82523d6000602084013e610f94565b606091505b508051610fb65760405160e560020a62461bcd02815260040161045d90611628565b805181602001fd5b600160e060020a0319167f150b7a02000000000000000000000000000000000000000000000000000000001490506107bc565b506001949350505050565b60608161103c57505060408051808201909152600181527f3000000000000000000000000000000000000000000000000000000000000000602082015290565b8160005b81156110665780611050816116de565b915061105f9050600a83611712565b9150611040565b60008167ffffffffffffffff81111561108157611081611376565b6040519080825280601f01601f1916602001820160405280156110ab576020820181803683370190505b5090505b84156107bc576110c06001836115f9565b91506110cd600a86611726565b6110d8906030611610565b7f01000000000000000000000000000000000000000000000000000000000000000281838151811061110c5761110c61173a565b60200101907effffffffffffffffffffffffffffffffffffffffffffffffffffffffffffff1916908160001a905350611146600a86611712565b94506110af565b82805461115990611516565b90600052602060002090601f01602090048101928261117b57600085556111c1565b82601f1061119457805160ff19168380011785556111c1565b828001600101855582156111c1579182015b828111156111c15782518255916020019190600101906111a6565b506111cd9291506111d1565b5090565b5b808211156111cd57600081556001016111d2565b600160e060020a03198116811461086257600080fd5b60006020828403121561120e57600080fd5b81356107f4816111e6565b60005b8381101561123457818101518382015260200161121c565b838111156106ad5750506000910152565b6000815180845261125d816020860160208601611219565b601f01601f19169290920160200192915050565b6020815260006107f46020830184611245565b60006020828403121561129657600080fd5b5035919050565b8035600160a060020a03811681146112b457600080fd5b919050565b600080604083850312156112cc57600080fd5b6112d58361129d565b946020939093013593505050565b6000806000606084860312156112f857600080fd5b6113018461129d565b925061130f6020850161129d565b9150604084013590509250925092565b60006020828403121561133157600080fd5b6107f48261129d565b6000806040838503121561134d57600080fd5b6113568361129d565b91506020830135801515811461136b57600080fd5b809150509250929050565b60e060020a634e487b7102600052604160045260246000fd5b600067ffffffffffffffff808411156113aa576113aa611376565b604051601f8501601f19908116603f011681019082821181831017156113d2576113d2611376565b816040528093508581528686860111156113eb57600080fd5b858560208301376000602087830101525050509392505050565b6000806000806080858703121561141b57600080fd5b6114248561129d565b93506114326020860161129d565b925060408501359150606085013567ffffffffffffffff81111561145557600080fd5b8501601f8101871361146657600080fd5b6114758782356020840161138f565b91505092959194509250565b6000806040838503121561149457600080fd5b61149d8361129d565b9150602083013567ffffffffffffffff8111156114b957600080fd5b8301601f810185136114ca57600080fd5b6114d98582356020840161138f565b9150509250929050565b600080604083850312156114f657600080fd5b6114ff8361129d565b915061150d6020840161129d565b90509250929050565b60028104600182168061152a57607f821691505b6020821081141561154e5760e060020a634e487b7102600052602260045260246000fd5b50919050565b6020808252602e908201527f4552433732313a2063616c6c6572206973206e6f7420746f6b656e206f776e6560408201527f72206e6f7220617070726f766564000000000000000000000000000000000000606082015260800190565b600083516115c3818460208801611219565b8351908301906115d7818360208801611219565b01949350505050565b60e060020a634e487b7102600052601160045260246000fd5b60008282101561160b5761160b6115e0565b500390565b60008219821115611623576116236115e0565b500190565b60208082526032908201527f4552433732313a207472616e7366657220746f206e6f6e20455243373231526560408201527f63656976657220696d706c656d656e7465720000000000000000000000000000606082015260800190565b6000600160a060020a038087168352808616602084015250836040830152608060608301526116b76080830184611245565b9695505050505050565b6000602082840312156116d357600080fd5b81516107f4816111e6565b60006000198214156116f2576116f26115e0565b5060010190565b60e060020a634e487b7102600052601260045260246000fd5b600082611721576117216116f9565b500490565b600082611735576117356116f9565b500690565b60e060020a634e487b7102600052603260045260246000fdfea2646970667358221220a98e168baf72c3fe2f433d600220fd99d7fb9b36ec6f5fe2617f3e3e2469bd4f64736f6c63430008090033",
			"opcodes": "PUSH1 0x80 PUSH1 0x40 MSTORE CALLVALUE DUP1 ISZERO PUSH2 0x10 JUMPI PUSH1 0x0 DUP1 REVERT JUMPDEST POP PUSH1 0x40 MLOAD PUSH2 0x1D SWAP1 PUSH2 0x111 JUMP JUMPDEST PUSH1 0x40 DUP1 DUP3 MSTORE PUSH1 0x4 SWAP1 DUP3 ADD MSTORE PUSH32 0x6E616D6500000000000000000000000000000000000000000000000000000000 PUSH1 0x60 DUP3 ADD MSTORE PUSH1 0x80 PUSH1 0x20 DUP3 ADD DUP2 SWAP1 MSTORE PUSH1 0x6 SWAP1 DUP3 ADD MSTORE PUSH32 0x73796D626F6C0000000000000000000000000000000000000000000000000000 PUSH1 0xA0 DUP3 ADD MSTORE PUSH1 0xC0 ADD PUSH1 0x40 MLOAD DUP1 SWAP2 SUB SWAP1 PUSH1 0x0 CREATE DUP1 ISZERO DUP1 ISZERO PUSH2 0xA2 JUMPI RETURNDATASIZE PUSH1 0x0 DUP1 RETURNDATACOPY RETURNDATASIZE PUSH1 0x0 REVERT JUMPDEST POP PUSH1 0x3 DUP1 SLOAD PUSH1 0x1 PUSH1 0xA0 PUSH1 0x2 EXP SUB NOT AND PUSH1 0x1 PUSH1 0xA0 PUSH1 0x2 EXP SUB SWAP3 SWAP1 SWAP3 AND SWAP2 SWAP1 SWAP2 OR SWAP1 SSTORE PUSH1 0x40 MLOAD PUSH2 0xCF SWAP1 PUSH2 0x11E JUMP JUMPDEST PUSH1 0x40 MLOAD DUP1 SWAP2 SUB SWAP1 PUSH1 0x0 CREATE DUP1 ISZERO DUP1 ISZERO PUSH2 0xEB JUMPI RETURNDATASIZE PUSH1 0x0 DUP1 RETURNDATACOPY RETURNDATASIZE PUSH1 0x0 REVERT JUMPDEST POP PUSH1 0x4 DUP1 SLOAD PUSH1 0x1 PUSH1 0xA0 PUSH1 0x2 EXP SUB NOT AND PUSH1 0x1 PUSH1 0xA0 PUSH1 0x2 EXP SUB SWAP3 SWAP1 SWAP3 AND SWAP2 SWAP1 SWAP2 OR SWAP1 SSTORE PUSH2 0x12B JUMP JUMPDEST PUSH2 0xE53 DUP1 PUSH2 0x12A8 DUP4 CODECOPY ADD SWAP1 JUMP JUMPDEST PUSH2 0x1940 DUP1 PUSH2 0x20FB DUP4 CODECOPY ADD SWAP1 JUMP JUMPDEST PUSH2 0x116E DUP1 PUSH2 0x13A PUSH1 0x0 CODECOPY PUSH1 0x0 RETURN INVALID PUSH1 0x80 PUSH1 0x40 MSTORE CALLVALUE DUP1 ISZERO PUSH2 0x10 JUMPI PUSH1 0x0 DUP1 REVERT JUMPDEST POP PUSH1 0x4 CALLDATASIZE LT PUSH2 0x11D JUMPI PUSH1 0x0 CALLDATALOAD PUSH29 0x100000000000000000000000000000000000000000000000000000000 SWAP1 DIV DUP1 PUSH4 0x6C3FBB2D GT PUSH2 0xB4 JUMPI DUP1 PUSH4 0x8E24DF9E GT PUSH2 0x83 JUMPI DUP1 PUSH4 0x8E24DF9E EQ PUSH2 0x25B JUMPI DUP1 PUSH4 0xA6319167 EQ PUSH2 0x26E JUMPI DUP1 PUSH4 0xC57C8EBD EQ PUSH2 0x281 JUMPI DUP1 PUSH4 0xE6978B50 EQ PUSH2 0x2B0 JUMPI PUSH1 0x0 DUP1 REVERT JUMPDEST DUP1 PUSH4 0x6C3FBB2D EQ PUSH2 0x207 JUMPI DUP1 PUSH4 0x8A7FF2F6 EQ PUSH2 0x21A JUMPI DUP1 PUSH4 0x8D1CB8B5 EQ PUSH2 0x222 JUMPI DUP1 PUSH4 0x8DB87C98 EQ PUSH2 0x235 JUMPI PUSH1 0x0 DUP1 REVERT JUMPDEST DUP1 PUSH4 0x2A9EFC7E GT PUSH2 0xF0 JUMPI DUP1 PUSH4 0x2A9EFC7E EQ PUSH2 0x1AE JUMPI DUP1 PUSH4 0x3901D2D4 EQ PUSH2 0x1C1 JUMPI DUP1 PUSH4 0x40273CAB EQ PUSH2 0x1EC JUMPI DUP1 PUSH4 0x68F81FE0 EQ PUSH2 0x1F4 JUMPI PUSH1 0x0 DUP1 REVERT JUMPDEST DUP1 PUSH4 0x13CF08B EQ PUSH2 0x122 JUMPI DUP1 PUSH4 0x289CAC1 EQ PUSH2 0x151 JUMPI DUP1 PUSH4 0x5FF130A EQ PUSH2 0x179 JUMPI DUP1 PUSH4 0x14F0865A EQ PUSH2 0x18E JUMPI JUMPDEST PUSH1 0x0 DUP1 REVERT JUMPDEST PUSH2 0x135 PUSH2 0x130 CALLDATASIZE PUSH1 0x4 PUSH2 0xE18 JUMP JUMPDEST PUSH2 0x2C6 JUMP JUMPDEST PUSH1 0x40 MLOAD PUSH2 0x148 SWAP8 SWAP7 SWAP6 SWAP5 SWAP4 SWAP3 SWAP2 SWAP1 PUSH2 0xE7E JUMP JUMPDEST PUSH1 0x40 MLOAD DUP1 SWAP2 SUB SWAP1 RETURN JUMPDEST PUSH2 0x164 PUSH2 0x15F CALLDATASIZE PUSH1 0x4 PUSH2 0xEE9 JUMP JUMPDEST PUSH2 0x3BD JUMP JUMPDEST PUSH1 0x40 MLOAD PUSH4 0xFFFFFFFF SWAP1 SWAP2 AND DUP2 MSTORE PUSH1 0x20 ADD PUSH2 0x148 JUMP JUMPDEST PUSH2 0x18C PUSH2 0x187 CALLDATASIZE PUSH1 0x4 PUSH2 0xEE9 JUMP JUMPDEST PUSH2 0x3F8 JUMP JUMPDEST STOP JUMPDEST PUSH2 0x1A1 PUSH2 0x19C CALLDATASIZE PUSH1 0x4 PUSH2 0xEE9 JUMP JUMPDEST PUSH2 0x445 JUMP JUMPDEST PUSH1 0x40 MLOAD PUSH2 0x148 SWAP2 SWAP1 PUSH2 0xF0B JUMP JUMPDEST PUSH2 0x164 PUSH2 0x1BC CALLDATASIZE PUSH1 0x4 PUSH2 0xEE9 JUMP JUMPDEST PUSH2 0x504 JUMP JUMPDEST PUSH1 0x4 SLOAD PUSH2 0x1D4 SWAP1 PUSH1 0x1 PUSH1 0xA0 PUSH1 0x2 EXP SUB AND DUP2 JUMP JUMPDEST PUSH1 0x40 MLOAD PUSH1 0x1 PUSH1 0xA0 PUSH1 0x2 EXP SUB SWAP1 SWAP2 AND DUP2 MSTORE PUSH1 0x20 ADD PUSH2 0x148 JUMP JUMPDEST PUSH1 0x2 SLOAD PUSH2 0x164 JUMP JUMPDEST PUSH2 0x18C PUSH2 0x202 CALLDATASIZE PUSH1 0x4 PUSH2 0xF1E JUMP JUMPDEST PUSH2 0x54D JUMP JUMPDEST PUSH1 0x3 SLOAD PUSH2 0x1D4 SWAP1 PUSH1 0x1 PUSH1 0xA0 PUSH1 0x2 EXP SUB AND DUP2 JUMP JUMPDEST PUSH2 0x164 PUSH2 0x820 JUMP JUMPDEST PUSH2 0x18C PUSH2 0x230 CALLDATASIZE PUSH1 0x4 PUSH2 0xF6A JUMP JUMPDEST PUSH2 0x88D JUMP JUMPDEST PUSH2 0x164 PUSH2 0x243 CALLDATASIZE PUSH1 0x4 PUSH2 0x101F JUMP JUMPDEST PUSH1 0x1 PUSH1 0x20 MSTORE PUSH1 0x0 SWAP1 DUP2 MSTORE PUSH1 0x40 SWAP1 KECCAK256 SLOAD PUSH4 0xFFFFFFFF AND DUP2 JUMP JUMPDEST PUSH2 0x18C PUSH2 0x269 CALLDATASIZE PUSH1 0x4 PUSH2 0xEE9 JUMP JUMPDEST PUSH2 0xB02 JUMP JUMPDEST PUSH2 0x164 PUSH2 0x27C CALLDATASIZE PUSH1 0x4 PUSH2 0xEE9 JUMP JUMPDEST PUSH2 0xD3C JUMP JUMPDEST PUSH2 0x164 PUSH2 0x28F CALLDATASIZE PUSH1 0x4 PUSH2 0x101F JUMP JUMPDEST PUSH1 0x1 PUSH1 0xA0 PUSH1 0x2 EXP SUB AND PUSH1 0x0 SWAP1 DUP2 MSTORE PUSH1 0x1 PUSH1 0x20 MSTORE PUSH1 0x40 SWAP1 KECCAK256 SLOAD PUSH4 0xFFFFFFFF AND SWAP1 JUMP JUMPDEST PUSH2 0x2B8 PUSH1 0xA DUP2 JUMP JUMPDEST PUSH1 0x40 MLOAD SWAP1 DUP2 MSTORE PUSH1 0x20 ADD PUSH2 0x148 JUMP JUMPDEST PUSH1 0x2 DUP2 DUP2 SLOAD DUP2 LT PUSH2 0x2D6 JUMPI PUSH1 0x0 DUP1 REVERT JUMPDEST PUSH1 0x0 SWAP2 DUP3 MSTORE PUSH1 0x20 SWAP1 SWAP2 KECCAK256 PUSH1 0x5 SWAP1 SWAP2 MUL ADD DUP1 SLOAD PUSH1 0x1 DUP3 ADD SLOAD PUSH1 0x2 DUP4 ADD SLOAD PUSH1 0x3 DUP5 ADD DUP1 SLOAD PUSH4 0xFFFFFFFF DUP6 AND SWAP7 POP PUSH5 0x100000000 SWAP1 SWAP5 DIV PUSH1 0x1 PUSH1 0xA0 PUSH1 0x2 EXP SUB AND SWAP5 SWAP3 SWAP4 SWAP2 SWAP3 SWAP2 PUSH2 0x322 SWAP1 PUSH2 0x1048 JUMP JUMPDEST DUP1 PUSH1 0x1F ADD PUSH1 0x20 DUP1 SWAP2 DIV MUL PUSH1 0x20 ADD PUSH1 0x40 MLOAD SWAP1 DUP2 ADD PUSH1 0x40 MSTORE DUP1 SWAP3 SWAP2 SWAP1 DUP2 DUP2 MSTORE PUSH1 0x20 ADD DUP3 DUP1 SLOAD PUSH2 0x34E SWAP1 PUSH2 0x1048 JUMP JUMPDEST DUP1 ISZERO PUSH2 0x39B JUMPI DUP1 PUSH1 0x1F LT PUSH2 0x370 JUMPI PUSH2 0x100 DUP1 DUP4 SLOAD DIV MUL DUP4 MSTORE SWAP2 PUSH1 0x20 ADD SWAP2 PUSH2 0x39B JUMP JUMPDEST DUP3 ADD SWAP2 SWAP1 PUSH1 0x0 MSTORE PUSH1 0x20 PUSH1 0x0 KECCAK256 SWAP1 JUMPDEST DUP2 SLOAD DUP2 MSTORE SWAP1 PUSH1 0x1 ADD SWAP1 PUSH1 0x20 ADD DUP1 DUP4 GT PUSH2 0x37E JUMPI DUP3 SWAP1 SUB PUSH1 0x1F AND DUP3 ADD SWAP2 JUMPDEST POP POP POP PUSH1 0x4 SWAP1 SWAP4 ADD SLOAD SWAP2 SWAP3 POP POP PUSH4 0xFFFFFFFF DUP1 DUP3 AND SWAP2 PUSH5 0x100000000 SWAP1 DIV AND DUP8 JUMP JUMPDEST PUSH1 0x0 PUSH1 0x2 DUP3 PUSH4 0xFFFFFFFF AND DUP2 SLOAD DUP2 LT PUSH2 0x3D8 JUMPI PUSH2 0x3D8 PUSH2 0x1080 JUMP JUMPDEST PUSH1 0x0 SWAP2 DUP3 MSTORE PUSH1 0x20 SWAP1 SWAP2 KECCAK256 PUSH1 0x4 PUSH1 0x5 SWAP1 SWAP3 MUL ADD ADD SLOAD PUSH4 0xFFFFFFFF AND SWAP3 SWAP2 POP POP JUMP JUMPDEST PUSH1 0x1 PUSH1 0x2 DUP3 PUSH4 0xFFFFFFFF AND DUP2 SLOAD DUP2 LT PUSH2 0x413 JUMPI PUSH2 0x413 PUSH2 0x1080 JUMP JUMPDEST SWAP1 PUSH1 0x0 MSTORE PUSH1 0x20 PUSH1 0x0 KECCAK256 SWAP1 PUSH1 0x5 MUL ADD PUSH1 0x4 ADD PUSH1 0x4 PUSH2 0x100 EXP DUP2 SLOAD DUP2 PUSH4 0xFFFFFFFF MUL NOT AND SWAP1 DUP4 PUSH4 0xFFFFFFFF AND MUL OR SWAP1 SSTORE POP POP JUMP JUMPDEST PUSH1 0x60 PUSH1 0x0 PUSH1 0x2 DUP4 PUSH4 0xFFFFFFFF AND DUP2 SLOAD DUP2 LT PUSH2 0x462 JUMPI PUSH2 0x462 PUSH2 0x1080 JUMP JUMPDEST SWAP1 PUSH1 0x0 MSTORE PUSH1 0x20 PUSH1 0x0 KECCAK256 SWAP1 PUSH1 0x5 MUL ADD PUSH1 0x3 ADD DUP1 SLOAD PUSH2 0x47E SWAP1 PUSH2 0x1048 JUMP JUMPDEST DUP1 PUSH1 0x1F ADD PUSH1 0x20 DUP1 SWAP2 DIV MUL PUSH1 0x20 ADD PUSH1 0x40 MLOAD SWAP1 DUP2 ADD PUSH1 0x40 MSTORE DUP1 SWAP3 SWAP2 SWAP1 DUP2 DUP2 MSTORE PUSH1 0x20 ADD DUP3 DUP1 SLOAD PUSH2 0x4AA SWAP1 PUSH2 0x1048 JUMP JUMPDEST DUP1 ISZERO PUSH2 0x4F7 JUMPI DUP1 PUSH1 0x1F LT PUSH2 0x4CC JUMPI PUSH2 0x100 DUP1 DUP4 SLOAD DIV MUL DUP4 MSTORE SWAP2 PUSH1 0x20 ADD SWAP2 PUSH2 0x4F7 JUMP JUMPDEST DUP3 ADD SWAP2 SWAP1 PUSH1 0x0 MSTORE PUSH1 0x20 PUSH1 0x0 KECCAK256 SWAP1 JUMPDEST DUP2 SLOAD DUP2 MSTORE SWAP1 PUSH1 0x1 ADD SWAP1 PUSH1 0x20 ADD DUP1 DUP4 GT PUSH2 0x4DA JUMPI DUP3 SWAP1 SUB PUSH1 0x1F AND DUP3 ADD SWAP2 JUMPDEST POP SWAP4 SWAP8 SWAP7 POP POP POP POP POP POP POP JUMP JUMPDEST PUSH1 0x0 PUSH1 0x2 DUP3 PUSH4 0xFFFFFFFF AND DUP2 SLOAD DUP2 LT PUSH2 0x51F JUMPI PUSH2 0x51F PUSH2 0x1080 JUMP JUMPDEST SWAP1 PUSH1 0x0 MSTORE PUSH1 0x20 PUSH1 0x0 KECCAK256 SWAP1 PUSH1 0x5 MUL ADD PUSH1 0x2 ADD SLOAD TIMESTAMP GT ISZERO PUSH2 0x540 JUMPI POP PUSH1 0x1 SWAP2 SWAP1 POP JUMP JUMPDEST POP PUSH1 0x0 SWAP2 SWAP1 POP JUMP JUMPDEST SWAP2 SWAP1 POP JUMP JUMPDEST PUSH1 0x2 DUP3 PUSH4 0xFFFFFFFF AND DUP2 SLOAD DUP2 LT PUSH2 0x566 JUMPI PUSH2 0x566 PUSH2 0x1080 JUMP JUMPDEST SWAP1 PUSH1 0x0 MSTORE PUSH1 0x20 PUSH1 0x0 KECCAK256 SWAP1 PUSH1 0x5 MUL ADD PUSH1 0x1 ADD SLOAD TIMESTAMP LT ISZERO DUP1 ISZERO PUSH2 0x5B1 JUMPI POP PUSH1 0x2 DUP3 PUSH4 0xFFFFFFFF AND DUP2 SLOAD DUP2 LT PUSH2 0x59B JUMPI PUSH2 0x59B PUSH2 0x1080 JUMP JUMPDEST SWAP1 PUSH1 0x0 MSTORE PUSH1 0x20 PUSH1 0x0 KECCAK256 SWAP1 PUSH1 0x5 MUL ADD PUSH1 0x2 ADD SLOAD TIMESTAMP GT ISZERO JUMPDEST PUSH2 0x62B JUMPI PUSH1 0x40 MLOAD PUSH1 0xE5 PUSH1 0x2 EXP PUSH3 0x461BCD MUL DUP2 MSTORE PUSH1 0x20 PUSH1 0x4 DUP3 ADD MSTORE PUSH1 0x28 PUSH1 0x24 DUP3 ADD MSTORE PUSH32 0x5468652070726F706F73616C206973206E6F7420696E2074686520766F74696E PUSH1 0x44 DUP3 ADD MSTORE PUSH32 0x6720706572696F64000000000000000000000000000000000000000000000000 PUSH1 0x64 DUP3 ADD MSTORE PUSH1 0x84 ADD JUMPDEST PUSH1 0x40 MLOAD DUP1 SWAP2 SUB SWAP1 REVERT JUMPDEST PUSH1 0x1 CALLER BALANCE LT ISZERO PUSH2 0x680 JUMPI PUSH1 0x40 MLOAD PUSH1 0xE5 PUSH1 0x2 EXP PUSH3 0x461BCD MUL DUP2 MSTORE PUSH1 0x20 PUSH1 0x4 DUP3 ADD MSTORE PUSH1 0xF PUSH1 0x24 DUP3 ADD MSTORE PUSH32 0x6E6F20656E6F756768206D6F6E65790000000000000000000000000000000000 PUSH1 0x44 DUP3 ADD MSTORE PUSH1 0x64 ADD PUSH2 0x622 JUMP JUMPDEST CALLER PUSH1 0x1 PUSH1 0xA0 PUSH1 0x2 EXP SUB AND PUSH1 0x2 DUP4 PUSH4 0xFFFFFFFF AND DUP2 SLOAD DUP2 LT PUSH2 0x6A3 JUMPI PUSH2 0x6A3 PUSH2 0x1080 JUMP JUMPDEST PUSH1 0x0 SWAP2 DUP3 MSTORE PUSH1 0x20 SWAP1 SWAP2 KECCAK256 PUSH1 0x5 SWAP1 SWAP2 MUL ADD SLOAD PUSH5 0x100000000 SWAP1 DIV PUSH1 0x1 PUSH1 0xA0 PUSH1 0x2 EXP SUB AND EQ ISZERO PUSH2 0x716 JUMPI PUSH1 0x40 MLOAD PUSH1 0xE5 PUSH1 0x2 EXP PUSH3 0x461BCD MUL DUP2 MSTORE PUSH1 0x20 PUSH1 0x4 DUP3 ADD MSTORE PUSH1 0x17 PUSH1 0x24 DUP3 ADD MSTORE PUSH32 0x796F752063616E277420766F746520796F757273656C66000000000000000000 PUSH1 0x44 DUP3 ADD MSTORE PUSH1 0x64 ADD PUSH2 0x622 JUMP JUMPDEST DUP1 PUSH1 0x2 DUP4 PUSH4 0xFFFFFFFF AND DUP2 SLOAD DUP2 LT PUSH2 0x730 JUMPI PUSH2 0x730 PUSH2 0x1080 JUMP JUMPDEST PUSH1 0x0 SWAP2 DUP3 MSTORE PUSH1 0x20 DUP3 KECCAK256 PUSH1 0x4 PUSH1 0x5 SWAP1 SWAP3 MUL ADD ADD DUP1 SLOAD SWAP1 SWAP2 SWAP1 PUSH2 0x758 SWAP1 DUP5 SWAP1 PUSH4 0xFFFFFFFF AND PUSH2 0x10B2 JUMP JUMPDEST DUP3 SLOAD PUSH4 0xFFFFFFFF SWAP2 DUP3 AND PUSH2 0x100 SWAP4 SWAP1 SWAP4 EXP SWAP3 DUP4 MUL SWAP2 SWAP1 SWAP3 MUL NOT SWAP1 SWAP2 AND OR SWAP1 SSTORE POP PUSH1 0x3 SLOAD PUSH1 0x40 MLOAD PUSH32 0x23B872DD00000000000000000000000000000000000000000000000000000000 DUP2 MSTORE CALLER PUSH1 0x4 DUP3 ADD MSTORE ADDRESS PUSH1 0x24 DUP3 ADD MSTORE PUSH1 0x1 PUSH1 0x44 DUP3 ADD MSTORE PUSH1 0x1 PUSH1 0xA0 PUSH1 0x2 EXP SUB SWAP1 SWAP2 AND SWAP1 PUSH4 0x23B872DD SWAP1 PUSH1 0x64 ADD PUSH1 0x20 PUSH1 0x40 MLOAD DUP1 DUP4 SUB DUP2 PUSH1 0x0 DUP8 DUP1 EXTCODESIZE ISZERO DUP1 ISZERO PUSH2 0x7E3 JUMPI PUSH1 0x0 DUP1 REVERT JUMPDEST POP GAS CALL ISZERO DUP1 ISZERO PUSH2 0x7F7 JUMPI RETURNDATASIZE PUSH1 0x0 DUP1 RETURNDATACOPY RETURNDATASIZE PUSH1 0x0 REVERT JUMPDEST POP POP POP POP PUSH1 0x40 MLOAD RETURNDATASIZE PUSH1 0x1F NOT PUSH1 0x1F DUP3 ADD AND DUP3 ADD DUP1 PUSH1 0x40 MSTORE POP DUP2 ADD SWAP1 PUSH2 0x81B SWAP2 SWAP1 PUSH2 0x10DA JUMP JUMPDEST POP POP POP JUMP JUMPDEST PUSH1 0x0 DUP1 DUP1 JUMPDEST PUSH1 0x2 SLOAD PUSH4 0xFFFFFFFF DUP3 AND LT ISZERO PUSH2 0x887 JUMPI TIMESTAMP PUSH1 0x2 DUP3 PUSH4 0xFFFFFFFF AND DUP2 SLOAD DUP2 LT PUSH2 0x84F JUMPI PUSH2 0x84F PUSH2 0x1080 JUMP JUMPDEST SWAP1 PUSH1 0x0 MSTORE PUSH1 0x20 PUSH1 0x0 KECCAK256 SWAP1 PUSH1 0x5 MUL ADD PUSH1 0x2 ADD SLOAD LT ISZERO PUSH2 0x875 JUMPI DUP2 PUSH2 0x871 DUP2 PUSH2 0x10FC JUMP JUMPDEST SWAP3 POP POP JUMPDEST DUP1 PUSH2 0x87F DUP2 PUSH2 0x10FC JUMP JUMPDEST SWAP2 POP POP PUSH2 0x825 JUMP JUMPDEST POP SWAP2 SWAP1 POP JUMP JUMPDEST PUSH1 0x0 TIMESTAMP PUSH2 0x89A DUP4 DUP3 PUSH2 0x1120 JUMP JUMPDEST PUSH1 0x40 DUP1 MLOAD PUSH1 0xE0 DUP2 ADD DUP3 MSTORE PUSH1 0x2 DUP1 SLOAD PUSH4 0xFFFFFFFF DUP1 DUP3 AND DUP5 MSTORE CALLER PUSH1 0x20 DUP1 DUP7 ADD SWAP2 DUP3 MSTORE SWAP6 DUP6 ADD DUP9 DUP2 MSTORE PUSH1 0x60 DUP7 ADD DUP9 DUP2 MSTORE PUSH1 0x80 DUP8 ADD DUP14 DUP2 MSTORE PUSH1 0x0 PUSH1 0xA0 DUP10 ADD DUP2 SWAP1 MSTORE PUSH1 0xC0 DUP10 ADD DUP2 SWAP1 MSTORE PUSH1 0x1 DUP8 ADD DUP9 SSTORE SWAP7 SWAP1 SWAP7 MSTORE DUP7 MLOAD PUSH1 0x5 SWAP1 SWAP6 MUL PUSH32 0x405787FA12A823E0F2B7631CC41B3BA8828B3321CA811111FA75CD3AA3BB5ACE DUP2 ADD DUP1 SLOAD SWAP5 MLOAD PUSH1 0x1 PUSH1 0xA0 PUSH1 0x2 EXP SUB AND PUSH5 0x100000000 MUL PUSH24 0xFFFFFFFFFFFFFFFFFFFFFFFFFFFFFFFFFFFFFFFFFFFFFFFF NOT SWAP1 SWAP6 AND SWAP7 SWAP1 SWAP6 AND SWAP6 SWAP1 SWAP6 OR SWAP3 SWAP1 SWAP3 OR DUP4 SSTORE MLOAD PUSH32 0x405787FA12A823E0F2B7631CC41B3BA8828B3321CA811111FA75CD3AA3BB5ACF DUP5 ADD SSTORE MLOAD PUSH32 0x405787FA12A823E0F2B7631CC41B3BA8828B3321CA811111FA75CD3AA3BB5AD0 DUP4 ADD SSTORE SWAP2 MLOAD DUP1 MLOAD SWAP6 SWAP8 POP SWAP3 SWAP5 SWAP2 SWAP4 PUSH2 0x9D8 SWAP4 PUSH32 0x405787FA12A823E0F2B7631CC41B3BA8828B3321CA811111FA75CD3AA3BB5AD1 SWAP1 SWAP3 ADD SWAP3 SWAP2 ADD SWAP1 PUSH2 0xD7F JUMP JUMPDEST POP PUSH1 0xA0 DUP3 ADD MLOAD PUSH1 0x4 SWAP1 SWAP2 ADD DUP1 SLOAD PUSH1 0xC0 SWAP1 SWAP4 ADD MLOAD PUSH4 0xFFFFFFFF SWAP1 DUP2 AND PUSH5 0x100000000 MUL PUSH8 0xFFFFFFFFFFFFFFFF NOT SWAP1 SWAP5 AND SWAP3 AND SWAP2 SWAP1 SWAP2 OR SWAP2 SWAP1 SWAP2 OR SWAP1 SSTORE PUSH1 0x2 SLOAD PUSH1 0x40 MLOAD PUSH32 0x944F5EF0A446D54C41EA39DAC07DE1FD2150EC3346CBFF6C627D1FFBA048676C SWAP2 PUSH2 0xA50 SWAP2 PUSH4 0xFFFFFFFF SWAP2 SWAP1 SWAP2 AND DUP2 MSTORE PUSH1 0x20 ADD SWAP1 JUMP JUMPDEST PUSH1 0x40 MLOAD DUP1 SWAP2 SUB SWAP1 LOG1 PUSH1 0x3 SLOAD PUSH1 0x40 MLOAD PUSH32 0x23B872DD00000000000000000000000000000000000000000000000000000000 DUP2 MSTORE CALLER PUSH1 0x4 DUP3 ADD MSTORE ADDRESS PUSH1 0x24 DUP3 ADD MSTORE PUSH1 0x2 PUSH1 0x44 DUP3 ADD MSTORE PUSH1 0x1 PUSH1 0xA0 PUSH1 0x2 EXP SUB SWAP1 SWAP2 AND SWAP1 PUSH4 0x23B872DD SWAP1 PUSH1 0x64 ADD PUSH1 0x20 PUSH1 0x40 MLOAD DUP1 DUP4 SUB DUP2 PUSH1 0x0 DUP8 DUP1 EXTCODESIZE ISZERO DUP1 ISZERO PUSH2 0xAC3 JUMPI PUSH1 0x0 DUP1 REVERT JUMPDEST POP GAS CALL ISZERO DUP1 ISZERO PUSH2 0xAD7 JUMPI RETURNDATASIZE PUSH1 0x0 DUP1 RETURNDATACOPY RETURNDATASIZE PUSH1 0x0 REVERT JUMPDEST POP POP POP POP PUSH1 0x40 MLOAD RETURNDATASIZE PUSH1 0x1F NOT PUSH1 0x1F DUP3 ADD AND DUP3 ADD DUP1 PUSH1 0x40 MSTORE POP DUP2 ADD SWAP1 PUSH2 0xAFB SWAP2 SWAP1 PUSH2 0x10DA JUMP JUMPDEST POP POP POP POP POP JUMP JUMPDEST PUSH1 0x2 DUP2 PUSH4 0xFFFFFFFF AND DUP2 SLOAD DUP2 LT PUSH2 0xB1B JUMPI PUSH2 0xB1B PUSH2 0x1080 JUMP JUMPDEST SWAP1 PUSH1 0x0 MSTORE PUSH1 0x20 PUSH1 0x0 KECCAK256 SWAP1 PUSH1 0x5 MUL ADD PUSH1 0x2 ADD SLOAD TIMESTAMP LT ISZERO PUSH2 0xB7F JUMPI PUSH1 0x40 MLOAD PUSH1 0xE5 PUSH1 0x2 EXP PUSH3 0x461BCD MUL DUP2 MSTORE PUSH1 0x20 PUSH1 0x4 DUP3 ADD MSTORE PUSH1 0x18 PUSH1 0x24 DUP3 ADD MSTORE PUSH32 0x5468652070726F706F73616C206973206E6F74206F7665720000000000000000 PUSH1 0x44 DUP3 ADD MSTORE PUSH1 0x64 ADD PUSH2 0x622 JUMP JUMPDEST PUSH1 0x0 PUSH1 0x2 DUP3 PUSH4 0xFFFFFFFF AND DUP2 SLOAD DUP2 LT PUSH2 0xB9A JUMPI PUSH2 0xB9A PUSH2 0x1080 JUMP JUMPDEST PUSH1 0x0 SWAP2 DUP3 MSTORE PUSH1 0x20 SWAP1 SWAP2 KECCAK256 PUSH1 0x4 PUSH1 0x5 SWAP1 SWAP3 MUL ADD ADD SLOAD PUSH4 0xFFFFFFFF AND GT ISZERO PUSH2 0xD39 JUMPI PUSH1 0x3 SLOAD PUSH1 0x2 DUP1 SLOAD PUSH1 0x1 PUSH1 0xA0 PUSH1 0x2 EXP SUB SWAP1 SWAP3 AND SWAP2 PUSH4 0xA9059CBB SWAP2 SWAP1 PUSH4 0xFFFFFFFF DUP6 AND SWAP1 DUP2 LT PUSH2 0xBEA JUMPI PUSH2 0xBEA PUSH2 0x1080 JUMP JUMPDEST PUSH1 0x0 SWAP2 DUP3 MSTORE PUSH1 0x20 SWAP1 SWAP2 KECCAK256 PUSH1 0x5 SWAP1 SWAP2 MUL ADD SLOAD PUSH1 0x40 MLOAD PUSH4 0xFFFFFFFF DUP4 AND PUSH29 0x100000000000000000000000000000000000000000000000000000000 MUL DUP2 MSTORE PUSH5 0x100000000 SWAP1 SWAP2 DIV PUSH1 0x1 PUSH1 0xA0 PUSH1 0x2 EXP SUB AND PUSH1 0x4 DUP3 ADD MSTORE PUSH1 0x2 PUSH1 0x24 DUP3 ADD MSTORE PUSH1 0x44 ADD PUSH1 0x20 PUSH1 0x40 MLOAD DUP1 DUP4 SUB DUP2 PUSH1 0x0 DUP8 DUP1 EXTCODESIZE ISZERO DUP1 ISZERO PUSH2 0xC61 JUMPI PUSH1 0x0 DUP1 REVERT JUMPDEST POP GAS CALL ISZERO DUP1 ISZERO PUSH2 0xC75 JUMPI RETURNDATASIZE PUSH1 0x0 DUP1 RETURNDATACOPY RETURNDATASIZE PUSH1 0x0 REVERT JUMPDEST POP POP POP POP PUSH1 0x40 MLOAD RETURNDATASIZE PUSH1 0x1F NOT PUSH1 0x1F DUP3 ADD AND DUP3 ADD DUP1 PUSH1 0x40 MSTORE POP DUP2 ADD SWAP1 PUSH2 0xC99 SWAP2 SWAP1 PUSH2 0x10DA JUMP JUMPDEST POP PUSH1 0x1 DUP1 PUSH1 0x0 PUSH1 0x2 DUP5 PUSH4 0xFFFFFFFF AND DUP2 SLOAD DUP2 LT PUSH2 0xCB8 JUMPI PUSH2 0xCB8 PUSH2 0x1080 JUMP JUMPDEST PUSH1 0x0 SWAP2 DUP3 MSTORE PUSH1 0x20 DUP1 DUP4 KECCAK256 PUSH1 0x5 SWAP1 SWAP3 MUL SWAP1 SWAP2 ADD SLOAD PUSH1 0x1 PUSH1 0xA0 PUSH1 0x2 EXP SUB PUSH5 0x100000000 SWAP1 SWAP2 DIV AND DUP4 MSTORE DUP3 ADD SWAP3 SWAP1 SWAP3 MSTORE PUSH1 0x40 ADD DUP2 KECCAK256 DUP1 SLOAD SWAP1 SWAP2 SWAP1 PUSH2 0xD00 SWAP1 DUP5 SWAP1 PUSH4 0xFFFFFFFF AND PUSH2 0x10B2 JUMP JUMPDEST SWAP3 POP PUSH2 0x100 EXP DUP2 SLOAD DUP2 PUSH4 0xFFFFFFFF MUL NOT AND SWAP1 DUP4 PUSH4 0xFFFFFFFF AND MUL OR SWAP1 SSTORE POP PUSH1 0x1 PUSH1 0x2 DUP3 PUSH4 0xFFFFFFFF AND DUP2 SLOAD DUP2 LT PUSH2 0x413 JUMPI PUSH2 0x413 PUSH2 0x1080 JUMP JUMPDEST POP JUMP JUMPDEST PUSH1 0x0 PUSH1 0x2 DUP3 PUSH4 0xFFFFFFFF AND DUP2 SLOAD DUP2 LT PUSH2 0xD57 JUMPI PUSH2 0xD57 PUSH2 0x1080 JUMP JUMPDEST PUSH1 0x0 SWAP2 DUP3 MSTORE PUSH1 0x20 SWAP1 SWAP2 KECCAK256 PUSH1 0x5 SWAP1 SWAP2 MUL ADD PUSH1 0x4 ADD SLOAD PUSH5 0x100000000 SWAP1 DIV PUSH4 0xFFFFFFFF AND SWAP3 SWAP2 POP POP JUMP JUMPDEST DUP3 DUP1 SLOAD PUSH2 0xD8B SWAP1 PUSH2 0x1048 JUMP JUMPDEST SWAP1 PUSH1 0x0 MSTORE PUSH1 0x20 PUSH1 0x0 KECCAK256 SWAP1 PUSH1 0x1F ADD PUSH1 0x20 SWAP1 DIV DUP2 ADD SWAP3 DUP3 PUSH2 0xDAD JUMPI PUSH1 0x0 DUP6 SSTORE PUSH2 0xDF3 JUMP JUMPDEST DUP3 PUSH1 0x1F LT PUSH2 0xDC6 JUMPI DUP1 MLOAD PUSH1 0xFF NOT AND DUP4 DUP1 ADD OR DUP6 SSTORE PUSH2 0xDF3 JUMP JUMPDEST DUP3 DUP1 ADD PUSH1 0x1 ADD DUP6 SSTORE DUP3 ISZERO PUSH2 0xDF3 JUMPI SWAP2 DUP3 ADD JUMPDEST DUP3 DUP2 GT ISZERO PUSH2 0xDF3 JUMPI DUP3 MLOAD DUP3 SSTORE SWAP2 PUSH1 0x20 ADD SWAP2 SWAP1 PUSH1 0x1 ADD SWAP1 PUSH2 0xDD8 JUMP JUMPDEST POP PUSH2 0xDFF SWAP3 SWAP2 POP PUSH2 0xE03 JUMP JUMPDEST POP SWAP1 JUMP JUMPDEST JUMPDEST DUP1 DUP3 GT ISZERO PUSH2 0xDFF JUMPI PUSH1 0x0 DUP2 SSTORE PUSH1 0x1 ADD PUSH2 0xE04 JUMP JUMPDEST PUSH1 0x0 PUSH1 0x20 DUP3 DUP5 SUB SLT ISZERO PUSH2 0xE2A JUMPI PUSH1 0x0 DUP1 REVERT JUMPDEST POP CALLDATALOAD SWAP2 SWAP1 POP JUMP JUMPDEST PUSH1 0x0 DUP2 MLOAD DUP1 DUP5 MSTORE PUSH1 0x0 JUMPDEST DUP2 DUP2 LT ISZERO PUSH2 0xE57 JUMPI PUSH1 0x20 DUP2 DUP6 ADD DUP2 ADD MLOAD DUP7 DUP4 ADD DUP3 ADD MSTORE ADD PUSH2 0xE3B JUMP JUMPDEST DUP2 DUP2 GT ISZERO PUSH2 0xE69 JUMPI PUSH1 0x0 PUSH1 0x20 DUP4 DUP8 ADD ADD MSTORE JUMPDEST POP PUSH1 0x1F ADD PUSH1 0x1F NOT AND SWAP3 SWAP1 SWAP3 ADD PUSH1 0x20 ADD SWAP3 SWAP2 POP POP JUMP JUMPDEST PUSH1 0x0 PUSH4 0xFFFFFFFF DUP1 DUP11 AND DUP4 MSTORE PUSH1 0x1 PUSH1 0xA0 PUSH1 0x2 EXP SUB DUP10 AND PUSH1 0x20 DUP5 ADD MSTORE DUP8 PUSH1 0x40 DUP5 ADD MSTORE DUP7 PUSH1 0x60 DUP5 ADD MSTORE PUSH1 0xE0 PUSH1 0x80 DUP5 ADD MSTORE PUSH2 0xEB9 PUSH1 0xE0 DUP5 ADD DUP8 PUSH2 0xE31 JUMP JUMPDEST SWAP5 DUP2 AND PUSH1 0xA0 DUP5 ADD MSTORE SWAP3 SWAP1 SWAP3 AND PUSH1 0xC0 SWAP1 SWAP2 ADD MSTORE POP SWAP6 SWAP5 POP POP POP POP POP JUMP JUMPDEST DUP1 CALLDATALOAD PUSH4 0xFFFFFFFF DUP2 AND DUP2 EQ PUSH2 0x548 JUMPI PUSH1 0x0 DUP1 REVERT JUMPDEST PUSH1 0x0 PUSH1 0x20 DUP3 DUP5 SUB SLT ISZERO PUSH2 0xEFB JUMPI PUSH1 0x0 DUP1 REVERT JUMPDEST PUSH2 0xF04 DUP3 PUSH2 0xED5 JUMP JUMPDEST SWAP4 SWAP3 POP POP POP JUMP JUMPDEST PUSH1 0x20 DUP2 MSTORE PUSH1 0x0 PUSH2 0xF04 PUSH1 0x20 DUP4 ADD DUP5 PUSH2 0xE31 JUMP JUMPDEST PUSH1 0x0 DUP1 PUSH1 0x40 DUP4 DUP6 SUB SLT ISZERO PUSH2 0xF31 JUMPI PUSH1 0x0 DUP1 REVERT JUMPDEST PUSH2 0xF3A DUP4 PUSH2 0xED5 JUMP JUMPDEST SWAP2 POP PUSH2 0xF48 PUSH1 0x20 DUP5 ADD PUSH2 0xED5 JUMP JUMPDEST SWAP1 POP SWAP3 POP SWAP3 SWAP1 POP JUMP JUMPDEST PUSH1 0xE0 PUSH1 0x2 EXP PUSH4 0x4E487B71 MUL PUSH1 0x0 MSTORE PUSH1 0x41 PUSH1 0x4 MSTORE PUSH1 0x24 PUSH1 0x0 REVERT JUMPDEST PUSH1 0x0 DUP1 PUSH1 0x40 DUP4 DUP6 SUB SLT ISZERO PUSH2 0xF7D JUMPI PUSH1 0x0 DUP1 REVERT JUMPDEST DUP3 CALLDATALOAD PUSH8 0xFFFFFFFFFFFFFFFF DUP1 DUP3 GT ISZERO PUSH2 0xF95 JUMPI PUSH1 0x0 DUP1 REVERT JUMPDEST DUP2 DUP6 ADD SWAP2 POP DUP6 PUSH1 0x1F DUP4 ADD SLT PUSH2 0xFA9 JUMPI PUSH1 0x0 DUP1 REVERT JUMPDEST DUP2 CALLDATALOAD DUP2 DUP2 GT ISZERO PUSH2 0xFBB JUMPI PUSH2 0xFBB PUSH2 0xF51 JUMP JUMPDEST PUSH1 0x40 MLOAD PUSH1 0x1F DUP3 ADD PUSH1 0x1F NOT SWAP1 DUP2 AND PUSH1 0x3F ADD AND DUP2 ADD SWAP1 DUP4 DUP3 GT DUP2 DUP4 LT OR ISZERO PUSH2 0xFE3 JUMPI PUSH2 0xFE3 PUSH2 0xF51 JUMP JUMPDEST DUP2 PUSH1 0x40 MSTORE DUP3 DUP2 MSTORE DUP9 PUSH1 0x20 DUP5 DUP8 ADD ADD GT ISZERO PUSH2 0xFFC JUMPI PUSH1 0x0 DUP1 REVERT JUMPDEST DUP3 PUSH1 0x20 DUP7 ADD PUSH1 0x20 DUP4 ADD CALLDATACOPY PUSH1 0x0 PUSH1 0x20 SWAP4 DUP3 ADD DUP5 ADD MSTORE SWAP9 SWAP7 SWAP1 SWAP2 ADD CALLDATALOAD SWAP7 POP POP POP POP POP POP JUMP JUMPDEST PUSH1 0x0 PUSH1 0x20 DUP3 DUP5 SUB SLT ISZERO PUSH2 0x1031 JUMPI PUSH1 0x0 DUP1 REVERT JUMPDEST DUP2 CALLDATALOAD PUSH1 0x1 PUSH1 0xA0 PUSH1 0x2 EXP SUB DUP2 AND DUP2 EQ PUSH2 0xF04 JUMPI PUSH1 0x0 DUP1 REVERT JUMPDEST PUSH1 0x2 DUP2 DIV PUSH1 0x1 DUP3 AND DUP1 PUSH2 0x105C JUMPI PUSH1 0x7F DUP3 AND SWAP2 POP JUMPDEST PUSH1 0x20 DUP3 LT DUP2 EQ ISZERO PUSH2 0x887 JUMPI PUSH1 0xE0 PUSH1 0x2 EXP PUSH4 0x4E487B71 MUL PUSH1 0x0 MSTORE PUSH1 0x22 PUSH1 0x4 MSTORE PUSH1 0x24 PUSH1 0x0 REVERT JUMPDEST PUSH1 0xE0 PUSH1 0x2 EXP PUSH4 0x4E487B71 MUL PUSH1 0x0 MSTORE PUSH1 0x32 PUSH1 0x4 MSTORE PUSH1 0x24 PUSH1 0x0 REVERT JUMPDEST PUSH1 0xE0 PUSH1 0x2 EXP PUSH4 0x4E487B71 MUL PUSH1 0x0 MSTORE PUSH1 0x11 PUSH1 0x4 MSTORE PUSH1 0x24 PUSH1 0x0 REVERT JUMPDEST PUSH1 0x0 PUSH4 0xFFFFFFFF DUP1 DUP4 AND DUP2 DUP6 AND DUP1 DUP4 SUB DUP3 GT ISZERO PUSH2 0x10D1 JUMPI PUSH2 0x10D1 PUSH2 0x1099 JUMP JUMPDEST ADD SWAP5 SWAP4 POP POP POP POP JUMP JUMPDEST PUSH1 0x0 PUSH1 0x20 DUP3 DUP5 SUB SLT ISZERO PUSH2 0x10EC JUMPI PUSH1 0x0 DUP1 REVERT JUMPDEST DUP2 MLOAD DUP1 ISZERO ISZERO DUP2 EQ PUSH2 0xF04 JUMPI PUSH1 0x0 DUP1 REVERT JUMPDEST PUSH1 0x0 PUSH4 0xFFFFFFFF DUP1 DUP4 AND DUP2 DUP2 EQ ISZERO PUSH2 0x1116 JUMPI PUSH2 0x1116 PUSH2 0x1099 JUMP JUMPDEST PUSH1 0x1 ADD SWAP4 SWAP3 POP POP POP JUMP JUMPDEST PUSH1 0x0 DUP3 NOT DUP3 GT ISZERO PUSH2 0x1133 JUMPI PUSH2 0x1133 PUSH2 0x1099 JUMP JUMPDEST POP ADD SWAP1 JUMP INVALID LOG2 PUSH5 0x6970667358 0x22 SLT KECCAK256 0xBC ADDRESS PUSH23 0xCF9AFC6558038D3C63D521A331F7EBE7125A271D836A38 PUSH31 0x212B33216A64736F6C63430008090033608060405234801562000011576000 DUP1 REVERT JUMPDEST POP PUSH1 0x40 MLOAD PUSH3 0xE53 CODESIZE SUB DUP1 PUSH3 0xE53 DUP4 CODECOPY DUP2 ADD PUSH1 0x40 DUP2 SWAP1 MSTORE PUSH3 0x34 SWAP2 PUSH3 0x1FA JUMP JUMPDEST DUP2 MLOAD DUP3 SWAP1 DUP3 SWAP1 PUSH3 0x4D SWAP1 PUSH1 0x3 SWAP1 PUSH1 0x20 DUP6 ADD SWAP1 PUSH3 0x6E JUMP JUMPDEST POP DUP1 MLOAD PUSH3 0x63 SWAP1 PUSH1 0x4 SWAP1 PUSH1 0x20 DUP5 ADD SWAP1 PUSH3 0x6E JUMP JUMPDEST POP POP POP POP POP PUSH3 0x2BA JUMP JUMPDEST DUP3 DUP1 SLOAD PUSH3 0x7C SWAP1 PUSH3 0x264 JUMP JUMPDEST SWAP1 PUSH1 0x0 MSTORE PUSH1 0x20 PUSH1 0x0 KECCAK256 SWAP1 PUSH1 0x1F ADD PUSH1 0x20 SWAP1 DIV DUP2 ADD SWAP3 DUP3 PUSH3 0xA0 JUMPI PUSH1 0x0 DUP6 SSTORE PUSH3 0xEB JUMP JUMPDEST DUP3 PUSH1 0x1F LT PUSH3 0xBB JUMPI DUP1 MLOAD PUSH1 0xFF NOT AND DUP4 DUP1 ADD OR DUP6 SSTORE PUSH3 0xEB JUMP JUMPDEST DUP3 DUP1 ADD PUSH1 0x1 ADD DUP6 SSTORE DUP3 ISZERO PUSH3 0xEB JUMPI SWAP2 DUP3 ADD JUMPDEST DUP3 DUP2 GT ISZERO PUSH3 0xEB JUMPI DUP3 MLOAD DUP3 SSTORE SWAP2 PUSH1 0x20 ADD SWAP2 SWAP1 PUSH1 0x1 ADD SWAP1 PUSH3 0xCE JUMP JUMPDEST POP PUSH3 0xF9 SWAP3 SWAP2 POP PUSH3 0xFD JUMP JUMPDEST POP SWAP1 JUMP JUMPDEST JUMPDEST DUP1 DUP3 GT ISZERO PUSH3 0xF9 JUMPI PUSH1 0x0 DUP2 SSTORE PUSH1 0x1 ADD PUSH3 0xFE JUMP JUMPDEST PUSH32 0x4E487B7100000000000000000000000000000000000000000000000000000000 PUSH1 0x0 MSTORE PUSH1 0x41 PUSH1 0x4 MSTORE PUSH1 0x24 PUSH1 0x0 REVERT JUMPDEST PUSH1 0x0 DUP3 PUSH1 0x1F DUP4 ADD SLT PUSH3 0x155 JUMPI PUSH1 0x0 DUP1 REVERT JUMPDEST DUP2 MLOAD PUSH1 0x1 PUSH1 0x40 PUSH1 0x2 EXP SUB DUP1 DUP3 GT ISZERO PUSH3 0x172 JUMPI PUSH3 0x172 PUSH3 0x114 JUMP JUMPDEST PUSH1 0x40 MLOAD PUSH1 0x1F DUP4 ADD PUSH1 0x1F NOT SWAP1 DUP2 AND PUSH1 0x3F ADD AND DUP2 ADD SWAP1 DUP3 DUP3 GT DUP2 DUP4 LT OR ISZERO PUSH3 0x19D JUMPI PUSH3 0x19D PUSH3 0x114 JUMP JUMPDEST DUP2 PUSH1 0x40 MSTORE DUP4 DUP2 MSTORE PUSH1 0x20 SWAP3 POP DUP7 DUP4 DUP6 DUP9 ADD ADD GT ISZERO PUSH3 0x1BA JUMPI PUSH1 0x0 DUP1 REVERT JUMPDEST PUSH1 0x0 SWAP2 POP JUMPDEST DUP4 DUP3 LT ISZERO PUSH3 0x1DE JUMPI DUP6 DUP3 ADD DUP4 ADD MLOAD DUP2 DUP4 ADD DUP5 ADD MSTORE SWAP1 DUP3 ADD SWAP1 PUSH3 0x1BF JUMP JUMPDEST DUP4 DUP3 GT ISZERO PUSH3 0x1F0 JUMPI PUSH1 0x0 DUP4 DUP6 DUP4 ADD ADD MSTORE JUMPDEST SWAP7 SWAP6 POP POP POP POP POP POP JUMP JUMPDEST PUSH1 0x0 DUP1 PUSH1 0x40 DUP4 DUP6 SUB SLT ISZERO PUSH3 0x20E JUMPI PUSH1 0x0 DUP1 REVERT JUMPDEST DUP3 MLOAD PUSH1 0x1 PUSH1 0x40 PUSH1 0x2 EXP SUB DUP1 DUP3 GT ISZERO PUSH3 0x226 JUMPI PUSH1 0x0 DUP1 REVERT JUMPDEST PUSH3 0x234 DUP7 DUP4 DUP8 ADD PUSH3 0x143 JUMP JUMPDEST SWAP4 POP PUSH1 0x20 DUP6 ADD MLOAD SWAP2 POP DUP1 DUP3 GT ISZERO PUSH3 0x24B JUMPI PUSH1 0x0 DUP1 REVERT JUMPDEST POP PUSH3 0x25A DUP6 DUP3 DUP7 ADD PUSH3 0x143 JUMP JUMPDEST SWAP2 POP POP SWAP3 POP SWAP3 SWAP1 POP JUMP JUMPDEST PUSH1 0x2 DUP2 DIV PUSH1 0x1 DUP3 AND DUP1 PUSH3 0x279 JUMPI PUSH1 0x7F DUP3 AND SWAP2 POP JUMPDEST PUSH1 0x20 DUP3 LT DUP2 EQ ISZERO PUSH3 0x2B4 JUMPI PUSH32 0x4E487B7100000000000000000000000000000000000000000000000000000000 PUSH1 0x0 MSTORE PUSH1 0x22 PUSH1 0x4 MSTORE PUSH1 0x24 PUSH1 0x0 REVERT JUMPDEST POP SWAP2 SWAP1 POP JUMP JUMPDEST PUSH2 0xB89 DUP1 PUSH3 0x2CA PUSH1 0x0 CODECOPY PUSH1 0x0 RETURN INVALID PUSH1 0x80 PUSH1 0x40 MSTORE CALLVALUE DUP1 ISZERO PUSH2 0x10 JUMPI PUSH1 0x0 DUP1 REVERT JUMPDEST POP PUSH1 0x4 CALLDATASIZE LT PUSH2 0xEC JUMPI PUSH1 0x0 CALLDATALOAD PUSH29 0x100000000000000000000000000000000000000000000000000000000 SWAP1 DIV DUP1 PUSH4 0x3884D635 GT PUSH2 0xA9 JUMPI DUP1 PUSH4 0x95D89B41 GT PUSH2 0x83 JUMPI DUP1 PUSH4 0x95D89B41 EQ PUSH2 0x1C9 JUMPI DUP1 PUSH4 0xA457C2D7 EQ PUSH2 0x1D1 JUMPI DUP1 PUSH4 0xA9059CBB EQ PUSH2 0x1E4 JUMPI DUP1 PUSH4 0xDD62ED3E EQ PUSH2 0x1F7 JUMPI PUSH1 0x0 DUP1 REVERT JUMPDEST DUP1 PUSH4 0x3884D635 EQ PUSH2 0x183 JUMPI DUP1 PUSH4 0x39509351 EQ PUSH2 0x18D JUMPI DUP1 PUSH4 0x70A08231 EQ PUSH2 0x1A0 JUMPI PUSH1 0x0 DUP1 REVERT JUMPDEST DUP1 PUSH4 0x6FDDE03 EQ PUSH2 0xF1 JUMPI DUP1 PUSH4 0x95EA7B3 EQ PUSH2 0x10F JUMPI DUP1 PUSH4 0x18160DDD EQ PUSH2 0x132 JUMPI DUP1 PUSH4 0x203E585D EQ PUSH2 0x144 JUMPI DUP1 PUSH4 0x23B872DD EQ PUSH2 0x161 JUMPI DUP1 PUSH4 0x313CE567 EQ PUSH2 0x174 JUMPI JUMPDEST PUSH1 0x0 DUP1 REVERT JUMPDEST PUSH2 0xF9 PUSH2 0x20A JUMP JUMPDEST PUSH1 0x40 MLOAD PUSH2 0x106 SWAP2 SWAP1 PUSH2 0x994 JUMP JUMPDEST PUSH1 0x40 MLOAD DUP1 SWAP2 SUB SWAP1 RETURN JUMPDEST PUSH2 0x122 PUSH2 0x11D CALLDATASIZE PUSH1 0x4 PUSH2 0xA05 JUMP JUMPDEST PUSH2 0x29C JUMP JUMPDEST PUSH1 0x40 MLOAD SWAP1 ISZERO ISZERO DUP2 MSTORE PUSH1 0x20 ADD PUSH2 0x106 JUMP JUMPDEST PUSH1 0x2 SLOAD JUMPDEST PUSH1 0x40 MLOAD SWAP1 DUP2 MSTORE PUSH1 0x20 ADD PUSH2 0x106 JUMP JUMPDEST PUSH2 0x14C PUSH2 0x2B4 JUMP JUMPDEST PUSH1 0x40 MLOAD PUSH4 0xFFFFFFFF SWAP1 SWAP2 AND DUP2 MSTORE PUSH1 0x20 ADD PUSH2 0x106 JUMP JUMPDEST PUSH2 0x122 PUSH2 0x16F CALLDATASIZE PUSH1 0x4 PUSH2 0xA2F JUMP JUMPDEST PUSH2 0x2DD JUMP JUMPDEST PUSH1 0x40 MLOAD PUSH1 0x12 DUP2 MSTORE PUSH1 0x20 ADD PUSH2 0x106 JUMP JUMPDEST PUSH2 0x18B PUSH2 0x301 JUMP JUMPDEST STOP JUMPDEST PUSH2 0x122 PUSH2 0x19B CALLDATASIZE PUSH1 0x4 PUSH2 0xA05 JUMP JUMPDEST PUSH2 0x3B7 JUMP JUMPDEST PUSH2 0x136 PUSH2 0x1AE CALLDATASIZE PUSH1 0x4 PUSH2 0xA6B JUMP JUMPDEST PUSH1 0x1 PUSH1 0xA0 PUSH1 0x2 EXP SUB AND PUSH1 0x0 SWAP1 DUP2 MSTORE PUSH1 0x20 DUP2 SWAP1 MSTORE PUSH1 0x40 SWAP1 KECCAK256 SLOAD SWAP1 JUMP JUMPDEST PUSH2 0xF9 PUSH2 0x3D9 JUMP JUMPDEST PUSH2 0x122 PUSH2 0x1DF CALLDATASIZE PUSH1 0x4 PUSH2 0xA05 JUMP JUMPDEST PUSH2 0x3E8 JUMP JUMPDEST PUSH2 0x122 PUSH2 0x1F2 CALLDATASIZE PUSH1 0x4 PUSH2 0xA05 JUMP JUMPDEST PUSH2 0x47E JUMP JUMPDEST PUSH2 0x136 PUSH2 0x205 CALLDATASIZE PUSH1 0x4 PUSH2 0xA8D JUMP JUMPDEST PUSH2 0x48C JUMP JUMPDEST PUSH1 0x60 PUSH1 0x3 DUP1 SLOAD PUSH2 0x219 SWAP1 PUSH2 0xAC0 JUMP JUMPDEST DUP1 PUSH1 0x1F ADD PUSH1 0x20 DUP1 SWAP2 DIV MUL PUSH1 0x20 ADD PUSH1 0x40 MLOAD SWAP1 DUP2 ADD PUSH1 0x40 MSTORE DUP1 SWAP3 SWAP2 SWAP1 DUP2 DUP2 MSTORE PUSH1 0x20 ADD DUP3 DUP1 SLOAD PUSH2 0x245 SWAP1 PUSH2 0xAC0 JUMP JUMPDEST DUP1 ISZERO PUSH2 0x292 JUMPI DUP1 PUSH1 0x1F LT PUSH2 0x267 JUMPI PUSH2 0x100 DUP1 DUP4 SLOAD DIV MUL DUP4 MSTORE SWAP2 PUSH1 0x20 ADD SWAP2 PUSH2 0x292 JUMP JUMPDEST DUP3 ADD SWAP2 SWAP1 PUSH1 0x0 MSTORE PUSH1 0x20 PUSH1 0x0 KECCAK256 SWAP1 JUMPDEST DUP2 SLOAD DUP2 MSTORE SWAP1 PUSH1 0x1 ADD SWAP1 PUSH1 0x20 ADD DUP1 DUP4 GT PUSH2 0x275 JUMPI DUP3 SWAP1 SUB PUSH1 0x1F AND DUP3 ADD SWAP2 JUMPDEST POP POP POP POP POP SWAP1 POP SWAP1 JUMP JUMPDEST PUSH1 0x0 CALLER PUSH2 0x2AA DUP2 DUP6 DUP6 PUSH2 0x4B7 JUMP JUMPDEST POP PUSH1 0x1 SWAP4 SWAP3 POP POP POP JUMP JUMPDEST CALLER PUSH1 0x0 SWAP1 DUP2 MSTORE PUSH1 0x5 PUSH1 0x20 MSTORE PUSH1 0x40 DUP2 KECCAK256 SLOAD PUSH1 0xFF AND ISZERO ISZERO PUSH1 0x1 EQ ISZERO PUSH2 0x2D7 JUMPI POP PUSH1 0x1 SWAP1 JUMP JUMPDEST POP PUSH1 0x0 SWAP1 JUMP JUMPDEST PUSH1 0x0 CALLER PUSH2 0x2EB DUP6 DUP3 DUP6 PUSH2 0x615 JUMP JUMPDEST PUSH2 0x2F6 DUP6 DUP6 DUP6 PUSH2 0x692 JUMP JUMPDEST POP PUSH1 0x1 SWAP5 SWAP4 POP POP POP POP JUMP JUMPDEST CALLER PUSH1 0x0 SWAP1 DUP2 MSTORE PUSH1 0x5 PUSH1 0x20 MSTORE PUSH1 0x40 SWAP1 KECCAK256 SLOAD PUSH1 0xFF AND ISZERO PUSH2 0x38F JUMPI PUSH1 0x40 MLOAD PUSH1 0xE5 PUSH1 0x2 EXP PUSH3 0x461BCD MUL DUP2 MSTORE PUSH1 0x20 PUSH1 0x4 DUP3 ADD MSTORE PUSH1 0x25 PUSH1 0x24 DUP3 ADD MSTORE PUSH32 0x5468697320757365722068617320636C61696D65642061697264726F7020616C PUSH1 0x44 DUP3 ADD MSTORE PUSH32 0x7265616479000000000000000000000000000000000000000000000000000000 PUSH1 0x64 DUP3 ADD MSTORE PUSH1 0x84 ADD JUMPDEST PUSH1 0x40 MLOAD DUP1 SWAP2 SUB SWAP1 REVERT JUMPDEST PUSH2 0x39B CALLER PUSH2 0x2710 PUSH2 0x8B2 JUMP JUMPDEST CALLER PUSH1 0x0 SWAP1 DUP2 MSTORE PUSH1 0x5 PUSH1 0x20 MSTORE PUSH1 0x40 SWAP1 KECCAK256 DUP1 SLOAD PUSH1 0xFF NOT AND PUSH1 0x1 OR SWAP1 SSTORE JUMP JUMPDEST PUSH1 0x0 CALLER PUSH2 0x2AA DUP2 DUP6 DUP6 PUSH2 0x3CA DUP4 DUP4 PUSH2 0x48C JUMP JUMPDEST PUSH2 0x3D4 SWAP2 SWAP1 PUSH2 0xB14 JUMP JUMPDEST PUSH2 0x4B7 JUMP JUMPDEST PUSH1 0x60 PUSH1 0x4 DUP1 SLOAD PUSH2 0x219 SWAP1 PUSH2 0xAC0 JUMP JUMPDEST PUSH1 0x0 CALLER DUP2 PUSH2 0x3F6 DUP3 DUP7 PUSH2 0x48C JUMP JUMPDEST SWAP1 POP DUP4 DUP2 LT ISZERO PUSH2 0x471 JUMPI PUSH1 0x40 MLOAD PUSH1 0xE5 PUSH1 0x2 EXP PUSH3 0x461BCD MUL DUP2 MSTORE PUSH1 0x20 PUSH1 0x4 DUP3 ADD MSTORE PUSH1 0x25 PUSH1 0x24 DUP3 ADD MSTORE PUSH32 0x45524332303A2064656372656173656420616C6C6F77616E63652062656C6F77 PUSH1 0x44 DUP3 ADD MSTORE PUSH32 0x207A65726F000000000000000000000000000000000000000000000000000000 PUSH1 0x64 DUP3 ADD MSTORE PUSH1 0x84 ADD PUSH2 0x386 JUMP JUMPDEST PUSH2 0x2F6 DUP3 DUP7 DUP7 DUP5 SUB PUSH2 0x4B7 JUMP JUMPDEST PUSH1 0x0 CALLER PUSH2 0x2AA DUP2 DUP6 DUP6 PUSH2 0x692 JUMP JUMPDEST PUSH1 0x1 PUSH1 0xA0 PUSH1 0x2 EXP SUB SWAP2 DUP3 AND PUSH1 0x0 SWAP1 DUP2 MSTORE PUSH1 0x1 PUSH1 0x20 SWAP1 DUP2 MSTORE PUSH1 0x40 DUP1 DUP4 KECCAK256 SWAP4 SWAP1 SWAP5 AND DUP3 MSTORE SWAP2 SWAP1 SWAP2 MSTORE KECCAK256 SLOAD SWAP1 JUMP JUMPDEST PUSH1 0x1 PUSH1 0xA0 PUSH1 0x2 EXP SUB DUP4 AND PUSH2 0x535 JUMPI PUSH1 0x40 MLOAD PUSH1 0xE5 PUSH1 0x2 EXP PUSH3 0x461BCD MUL DUP2 MSTORE PUSH1 0x20 PUSH1 0x4 DUP3 ADD MSTORE PUSH1 0x24 DUP1 DUP3 ADD MSTORE PUSH32 0x45524332303A20617070726F76652066726F6D20746865207A65726F20616464 PUSH1 0x44 DUP3 ADD MSTORE PUSH32 0x7265737300000000000000000000000000000000000000000000000000000000 PUSH1 0x64 DUP3 ADD MSTORE PUSH1 0x84 ADD PUSH2 0x386 JUMP JUMPDEST PUSH1 0x1 PUSH1 0xA0 PUSH1 0x2 EXP SUB DUP3 AND PUSH2 0x5B4 JUMPI PUSH1 0x40 MLOAD PUSH1 0xE5 PUSH1 0x2 EXP PUSH3 0x461BCD MUL DUP2 MSTORE PUSH1 0x20 PUSH1 0x4 DUP3 ADD MSTORE PUSH1 0x22 PUSH1 0x24 DUP3 ADD MSTORE PUSH32 0x45524332303A20617070726F766520746F20746865207A65726F206164647265 PUSH1 0x44 DUP3 ADD MSTORE PUSH32 0x7373000000000000000000000000000000000000000000000000000000000000 PUSH1 0x64 DUP3 ADD MSTORE PUSH1 0x84 ADD PUSH2 0x386 JUMP JUMPDEST PUSH1 0x1 PUSH1 0xA0 PUSH1 0x2 EXP SUB DUP4 DUP2 AND PUSH1 0x0 DUP2 DUP2 MSTORE PUSH1 0x1 PUSH1 0x20 SWAP1 DUP2 MSTORE PUSH1 0x40 DUP1 DUP4 KECCAK256 SWAP5 DUP8 AND DUP1 DUP5 MSTORE SWAP5 DUP3 MSTORE SWAP2 DUP3 SWAP1 KECCAK256 DUP6 SWAP1 SSTORE SWAP1 MLOAD DUP5 DUP2 MSTORE PUSH32 0x8C5BE1E5EBEC7D5BD14F71427D1E84F3DD0314C0F7B2291E5B200AC8C7C3B925 SWAP2 ADD PUSH1 0x40 MLOAD DUP1 SWAP2 SUB SWAP1 LOG3 POP POP POP JUMP JUMPDEST PUSH1 0x0 PUSH2 0x621 DUP5 DUP5 PUSH2 0x48C JUMP JUMPDEST SWAP1 POP PUSH1 0x0 NOT DUP2 EQ PUSH2 0x68C JUMPI DUP2 DUP2 LT ISZERO PUSH2 0x67F JUMPI PUSH1 0x40 MLOAD PUSH1 0xE5 PUSH1 0x2 EXP PUSH3 0x461BCD MUL DUP2 MSTORE PUSH1 0x20 PUSH1 0x4 DUP3 ADD MSTORE PUSH1 0x1D PUSH1 0x24 DUP3 ADD MSTORE PUSH32 0x45524332303A20696E73756666696369656E7420616C6C6F77616E6365000000 PUSH1 0x44 DUP3 ADD MSTORE PUSH1 0x64 ADD PUSH2 0x386 JUMP JUMPDEST PUSH2 0x68C DUP5 DUP5 DUP5 DUP5 SUB PUSH2 0x4B7 JUMP JUMPDEST POP POP POP POP JUMP JUMPDEST PUSH1 0x1 PUSH1 0xA0 PUSH1 0x2 EXP SUB DUP4 AND PUSH2 0x711 JUMPI PUSH1 0x40 MLOAD PUSH1 0xE5 PUSH1 0x2 EXP PUSH3 0x461BCD MUL DUP2 MSTORE PUSH1 0x20 PUSH1 0x4 DUP3 ADD MSTORE PUSH1 0x25 PUSH1 0x24 DUP3 ADD MSTORE PUSH32 0x45524332303A207472616E736665722066726F6D20746865207A65726F206164 PUSH1 0x44 DUP3 ADD MSTORE PUSH32 0x6472657373000000000000000000000000000000000000000000000000000000 PUSH1 0x64 DUP3 ADD MSTORE PUSH1 0x84 ADD PUSH2 0x386 JUMP JUMPDEST PUSH1 0x1 PUSH1 0xA0 PUSH1 0x2 EXP SUB DUP3 AND PUSH2 0x790 JUMPI PUSH1 0x40 MLOAD PUSH1 0xE5 PUSH1 0x2 EXP PUSH3 0x461BCD MUL DUP2 MSTORE PUSH1 0x20 PUSH1 0x4 DUP3 ADD MSTORE PUSH1 0x23 PUSH1 0x24 DUP3 ADD MSTORE PUSH32 0x45524332303A207472616E7366657220746F20746865207A65726F2061646472 PUSH1 0x44 DUP3 ADD MSTORE PUSH32 0x6573730000000000000000000000000000000000000000000000000000000000 PUSH1 0x64 DUP3 ADD MSTORE PUSH1 0x84 ADD PUSH2 0x386 JUMP JUMPDEST PUSH1 0x1 PUSH1 0xA0 PUSH1 0x2 EXP SUB DUP4 AND PUSH1 0x0 SWAP1 DUP2 MSTORE PUSH1 0x20 DUP2 SWAP1 MSTORE PUSH1 0x40 SWAP1 KECCAK256 SLOAD DUP2 DUP2 LT ISZERO PUSH2 0x822 JUMPI PUSH1 0x40 MLOAD PUSH1 0xE5 PUSH1 0x2 EXP PUSH3 0x461BCD MUL DUP2 MSTORE PUSH1 0x20 PUSH1 0x4 DUP3 ADD MSTORE PUSH1 0x26 PUSH1 0x24 DUP3 ADD MSTORE PUSH32 0x45524332303A207472616E7366657220616D6F756E7420657863656564732062 PUSH1 0x44 DUP3 ADD MSTORE PUSH32 0x616C616E63650000000000000000000000000000000000000000000000000000 PUSH1 0x64 DUP3 ADD MSTORE PUSH1 0x84 ADD PUSH2 0x386 JUMP JUMPDEST PUSH1 0x1 PUSH1 0xA0 PUSH1 0x2 EXP SUB DUP1 DUP6 AND PUSH1 0x0 SWAP1 DUP2 MSTORE PUSH1 0x20 DUP2 SWAP1 MSTORE PUSH1 0x40 DUP1 DUP3 KECCAK256 DUP6 DUP6 SUB SWAP1 SSTORE SWAP2 DUP6 AND DUP2 MSTORE SWAP1 DUP2 KECCAK256 DUP1 SLOAD DUP5 SWAP3 SWAP1 PUSH2 0x859 SWAP1 DUP5 SWAP1 PUSH2 0xB14 JUMP JUMPDEST SWAP3 POP POP DUP2 SWAP1 SSTORE POP DUP3 PUSH1 0x1 PUSH1 0xA0 PUSH1 0x2 EXP SUB AND DUP5 PUSH1 0x1 PUSH1 0xA0 PUSH1 0x2 EXP SUB AND PUSH32 0xDDF252AD1BE2C89B69C2B068FC378DAA952BA7F163C4A11628F55A4DF523B3EF DUP5 PUSH1 0x40 MLOAD PUSH2 0x8A5 SWAP2 DUP2 MSTORE PUSH1 0x20 ADD SWAP1 JUMP JUMPDEST PUSH1 0x40 MLOAD DUP1 SWAP2 SUB SWAP1 LOG3 PUSH2 0x68C JUMP JUMPDEST PUSH1 0x1 PUSH1 0xA0 PUSH1 0x2 EXP SUB DUP3 AND PUSH2 0x90B JUMPI PUSH1 0x40 MLOAD PUSH1 0xE5 PUSH1 0x2 EXP PUSH3 0x461BCD MUL DUP2 MSTORE PUSH1 0x20 PUSH1 0x4 DUP3 ADD MSTORE PUSH1 0x1F PUSH1 0x24 DUP3 ADD MSTORE PUSH32 0x45524332303A206D696E7420746F20746865207A65726F206164647265737300 PUSH1 0x44 DUP3 ADD MSTORE PUSH1 0x64 ADD PUSH2 0x386 JUMP JUMPDEST DUP1 PUSH1 0x2 PUSH1 0x0 DUP3 DUP3 SLOAD PUSH2 0x91D SWAP2 SWAP1 PUSH2 0xB14 JUMP JUMPDEST SWAP1 SWAP2 SSTORE POP POP PUSH1 0x1 PUSH1 0xA0 PUSH1 0x2 EXP SUB DUP3 AND PUSH1 0x0 SWAP1 DUP2 MSTORE PUSH1 0x20 DUP2 SWAP1 MSTORE PUSH1 0x40 DUP2 KECCAK256 DUP1 SLOAD DUP4 SWAP3 SWAP1 PUSH2 0x94A SWAP1 DUP5 SWAP1 PUSH2 0xB14 JUMP JUMPDEST SWAP1 SWAP2 SSTORE POP POP PUSH1 0x40 MLOAD DUP2 DUP2 MSTORE PUSH1 0x1 PUSH1 0xA0 PUSH1 0x2 EXP SUB DUP4 AND SWAP1 PUSH1 0x0 SWAP1 PUSH32 0xDDF252AD1BE2C89B69C2B068FC378DAA952BA7F163C4A11628F55A4DF523B3EF SWAP1 PUSH1 0x20 ADD PUSH1 0x40 MLOAD DUP1 SWAP2 SUB SWAP1 LOG3 POP POP JUMP JUMPDEST PUSH1 0x0 PUSH1 0x20 DUP1 DUP4 MSTORE DUP4 MLOAD DUP1 DUP3 DUP6 ADD MSTORE PUSH1 0x0 JUMPDEST DUP2 DUP2 LT ISZERO PUSH2 0x9C1 JUMPI DUP6 DUP2 ADD DUP4 ADD MLOAD DUP6 DUP3 ADD PUSH1 0x40 ADD MSTORE DUP3 ADD PUSH2 0x9A5 JUMP JUMPDEST DUP2 DUP2 GT ISZERO PUSH2 0x9D3 JUMPI PUSH1 0x0 PUSH1 0x40 DUP4 DUP8 ADD ADD MSTORE JUMPDEST POP PUSH1 0x1F ADD PUSH1 0x1F NOT AND SWAP3 SWAP1 SWAP3 ADD PUSH1 0x40 ADD SWAP4 SWAP3 POP POP POP JUMP JUMPDEST DUP1 CALLDATALOAD PUSH1 0x1 PUSH1 0xA0 PUSH1 0x2 EXP SUB DUP2 AND DUP2 EQ PUSH2 0xA00 JUMPI PUSH1 0x0 DUP1 REVERT JUMPDEST SWAP2 SWAP1 POP JUMP JUMPDEST PUSH1 0x0 DUP1 PUSH1 0x40 DUP4 DUP6 SUB SLT ISZERO PUSH2 0xA18 JUMPI PUSH1 0x0 DUP1 REVERT JUMPDEST PUSH2 0xA21 DUP4 PUSH2 0x9E9 JUMP JUMPDEST SWAP5 PUSH1 0x20 SWAP4 SWAP1 SWAP4 ADD CALLDATALOAD SWAP4 POP POP POP JUMP JUMPDEST PUSH1 0x0 DUP1 PUSH1 0x0 PUSH1 0x60 DUP5 DUP7 SUB SLT ISZERO PUSH2 0xA44 JUMPI PUSH1 0x0 DUP1 REVERT JUMPDEST PUSH2 0xA4D DUP5 PUSH2 0x9E9 JUMP JUMPDEST SWAP3 POP PUSH2 0xA5B PUSH1 0x20 DUP6 ADD PUSH2 0x9E9 JUMP JUMPDEST SWAP2 POP PUSH1 0x40 DUP5 ADD CALLDATALOAD SWAP1 POP SWAP3 POP SWAP3 POP SWAP3 JUMP JUMPDEST PUSH1 0x0 PUSH1 0x20 DUP3 DUP5 SUB SLT ISZERO PUSH2 0xA7D JUMPI PUSH1 0x0 DUP1 REVERT JUMPDEST PUSH2 0xA86 DUP3 PUSH2 0x9E9 JUMP JUMPDEST SWAP4 SWAP3 POP POP POP JUMP JUMPDEST PUSH1 0x0 DUP1 PUSH1 0x40 DUP4 DUP6 SUB SLT ISZERO PUSH2 0xAA0 JUMPI PUSH1 0x0 DUP1 REVERT JUMPDEST PUSH2 0xAA9 DUP4 PUSH2 0x9E9 JUMP JUMPDEST SWAP2 POP PUSH2 0xAB7 PUSH1 0x20 DUP5 ADD PUSH2 0x9E9 JUMP JUMPDEST SWAP1 POP SWAP3 POP SWAP3 SWAP1 POP JUMP JUMPDEST PUSH1 0x2 DUP2 DIV PUSH1 0x1 DUP3 AND DUP1 PUSH2 0xAD4 JUMPI PUSH1 0x7F DUP3 AND SWAP2 POP JUMPDEST PUSH1 0x20 DUP3 LT DUP2 EQ ISZERO PUSH2 0xB0E JUMPI PUSH32 0x4E487B7100000000000000000000000000000000000000000000000000000000 PUSH1 0x0 MSTORE PUSH1 0x22 PUSH1 0x4 MSTORE PUSH1 0x24 PUSH1 0x0 REVERT JUMPDEST POP SWAP2 SWAP1 POP JUMP JUMPDEST PUSH1 0x0 DUP3 NOT DUP3 GT ISZERO PUSH2 0xB4E JUMPI PUSH32 0x4E487B7100000000000000000000000000000000000000000000000000000000 PUSH1 0x0 MSTORE PUSH1 0x11 PUSH1 0x4 MSTORE PUSH1 0x24 PUSH1 0x0 REVERT JUMPDEST POP ADD SWAP1 JUMP INVALID LOG2 PUSH5 0x6970667358 0x22 SLT KECCAK256 0xF7 PUSH26 0x923FEA62DA4478B09A3BDAC2059E0C14BB65F73E5B968FD66AF DIV 0xD4 0x24 0xB4 PUSH5 0x736F6C6343 STOP ADDMOD MULMOD STOP CALLER PUSH1 0x80 PUSH1 0x40 MSTORE CALLVALUE DUP1 ISZERO PUSH3 0x11 JUMPI PUSH1 0x0 DUP1 REVERT JUMPDEST POP PUSH1 0x40 DUP1 MLOAD DUP1 DUP3 ADD DUP3 MSTORE PUSH1 0x8 DUP2 MSTORE PUSH32 0x47616D654974656D000000000000000000000000000000000000000000000000 PUSH1 0x20 DUP1 DUP4 ADD SWAP2 DUP3 MSTORE DUP4 MLOAD DUP1 DUP6 ADD SWAP1 SWAP5 MSTORE PUSH1 0x3 DUP5 MSTORE PUSH32 0x49544D0000000000000000000000000000000000000000000000000000000000 SWAP1 DUP5 ADD MSTORE DUP2 MLOAD SWAP2 SWAP3 SWAP2 PUSH3 0x8C SWAP2 PUSH1 0x0 SWAP2 PUSH3 0xAB JUMP JUMPDEST POP DUP1 MLOAD PUSH3 0xA2 SWAP1 PUSH1 0x1 SWAP1 PUSH1 0x20 DUP5 ADD SWAP1 PUSH3 0xAB JUMP JUMPDEST POP POP POP PUSH3 0x1A7 JUMP JUMPDEST DUP3 DUP1 SLOAD PUSH3 0xB9 SWAP1 PUSH3 0x151 JUMP JUMPDEST SWAP1 PUSH1 0x0 MSTORE PUSH1 0x20 PUSH1 0x0 KECCAK256 SWAP1 PUSH1 0x1F ADD PUSH1 0x20 SWAP1 DIV DUP2 ADD SWAP3 DUP3 PUSH3 0xDD JUMPI PUSH1 0x0 DUP6 SSTORE PUSH3 0x128 JUMP JUMPDEST DUP3 PUSH1 0x1F LT PUSH3 0xF8 JUMPI DUP1 MLOAD PUSH1 0xFF NOT AND DUP4 DUP1 ADD OR DUP6 SSTORE PUSH3 0x128 JUMP JUMPDEST DUP3 DUP1 ADD PUSH1 0x1 ADD DUP6 SSTORE DUP3 ISZERO PUSH3 0x128 JUMPI SWAP2 DUP3 ADD JUMPDEST DUP3 DUP2 GT ISZERO PUSH3 0x128 JUMPI DUP3 MLOAD DUP3 SSTORE SWAP2 PUSH1 0x20 ADD SWAP2 SWAP1 PUSH1 0x1 ADD SWAP1 PUSH3 0x10B JUMP JUMPDEST POP PUSH3 0x136 SWAP3 SWAP2 POP PUSH3 0x13A JUMP JUMPDEST POP SWAP1 JUMP JUMPDEST JUMPDEST DUP1 DUP3 GT ISZERO PUSH3 0x136 JUMPI PUSH1 0x0 DUP2 SSTORE PUSH1 0x1 ADD PUSH3 0x13B JUMP JUMPDEST PUSH1 0x2 DUP2 DIV PUSH1 0x1 DUP3 AND DUP1 PUSH3 0x166 JUMPI PUSH1 0x7F DUP3 AND SWAP2 POP JUMPDEST PUSH1 0x20 DUP3 LT DUP2 EQ ISZERO PUSH3 0x1A1 JUMPI PUSH32 0x4E487B7100000000000000000000000000000000000000000000000000000000 PUSH1 0x0 MSTORE PUSH1 0x22 PUSH1 0x4 MSTORE PUSH1 0x24 PUSH1 0x0 REVERT JUMPDEST POP SWAP2 SWAP1 POP JUMP JUMPDEST PUSH2 0x1789 DUP1 PUSH3 0x1B7 PUSH1 0x0 CODECOPY PUSH1 0x0 RETURN INVALID PUSH1 0x80 PUSH1 0x40 MSTORE CALLVALUE DUP1 ISZERO PUSH2 0x10 JUMPI PUSH1 0x0 DUP1 REVERT JUMPDEST POP PUSH1 0x4 CALLDATASIZE LT PUSH2 0x107 JUMPI PUSH1 0x0 CALLDATALOAD PUSH29 0x100000000000000000000000000000000000000000000000000000000 SWAP1 DIV DUP1 PUSH4 0x70A08231 GT PUSH2 0xA9 JUMPI DUP1 PUSH4 0xB88D4FDE GT PUSH2 0x83 JUMPI DUP1 PUSH4 0xB88D4FDE EQ PUSH2 0x1FE JUMPI DUP1 PUSH4 0xC87B56DD EQ PUSH2 0x211 JUMPI DUP1 PUSH4 0xCF378343 EQ PUSH2 0x224 JUMPI DUP1 PUSH4 0xE985E9C5 EQ PUSH2 0x237 JUMPI PUSH1 0x0 DUP1 REVERT JUMPDEST DUP1 PUSH4 0x70A08231 EQ PUSH2 0x1C2 JUMPI DUP1 PUSH4 0x95D89B41 EQ PUSH2 0x1E3 JUMPI DUP1 PUSH4 0xA22CB465 EQ PUSH2 0x1EB JUMPI PUSH1 0x0 DUP1 REVERT JUMPDEST DUP1 PUSH4 0x95EA7B3 GT PUSH2 0xE5 JUMPI DUP1 PUSH4 0x95EA7B3 EQ PUSH2 0x174 JUMPI DUP1 PUSH4 0x23B872DD EQ PUSH2 0x189 JUMPI DUP1 PUSH4 0x42842E0E EQ PUSH2 0x19C JUMPI DUP1 PUSH4 0x6352211E EQ PUSH2 0x1AF JUMPI PUSH1 0x0 DUP1 REVERT JUMPDEST DUP1 PUSH4 0x1FFC9A7 EQ PUSH2 0x10C JUMPI DUP1 PUSH4 0x6FDDE03 EQ PUSH2 0x134 JUMPI DUP1 PUSH4 0x81812FC EQ PUSH2 0x149 JUMPI JUMPDEST PUSH1 0x0 DUP1 REVERT JUMPDEST PUSH2 0x11F PUSH2 0x11A CALLDATASIZE PUSH1 0x4 PUSH2 0x11FC JUMP JUMPDEST PUSH2 0x273 JUMP JUMPDEST PUSH1 0x40 MLOAD SWAP1 ISZERO ISZERO DUP2 MSTORE PUSH1 0x20 ADD JUMPDEST PUSH1 0x40 MLOAD DUP1 SWAP2 SUB SWAP1 RETURN JUMPDEST PUSH2 0x13C PUSH2 0x310 JUMP JUMPDEST PUSH1 0x40 MLOAD PUSH2 0x12B SWAP2 SWAP1 PUSH2 0x1271 JUMP JUMPDEST PUSH2 0x15C PUSH2 0x157 CALLDATASIZE PUSH1 0x4 PUSH2 0x1284 JUMP JUMPDEST PUSH2 0x3A2 JUMP JUMPDEST PUSH1 0x40 MLOAD PUSH1 0x1 PUSH1 0xA0 PUSH1 0x2 EXP SUB SWAP1 SWAP2 AND DUP2 MSTORE PUSH1 0x20 ADD PUSH2 0x12B JUMP JUMPDEST PUSH2 0x187 PUSH2 0x182 CALLDATASIZE PUSH1 0x4 PUSH2 0x12B9 JUMP JUMPDEST PUSH2 0x3C9 JUMP JUMPDEST STOP JUMPDEST PUSH2 0x187 PUSH2 0x197 CALLDATASIZE PUSH1 0x4 PUSH2 0x12E3 JUMP JUMPDEST PUSH2 0x506 JUMP JUMPDEST PUSH2 0x187 PUSH2 0x1AA CALLDATASIZE PUSH1 0x4 PUSH2 0x12E3 JUMP JUMPDEST PUSH2 0x53A JUMP JUMPDEST PUSH2 0x15C PUSH2 0x1BD CALLDATASIZE PUSH1 0x4 PUSH2 0x1284 JUMP JUMPDEST PUSH2 0x555 JUMP JUMPDEST PUSH2 0x1D5 PUSH2 0x1D0 CALLDATASIZE PUSH1 0x4 PUSH2 0x131F JUMP JUMPDEST PUSH2 0x5BD JUMP JUMPDEST PUSH1 0x40 MLOAD SWAP1 DUP2 MSTORE PUSH1 0x20 ADD PUSH2 0x12B JUMP JUMPDEST PUSH2 0x13C PUSH2 0x65A JUMP JUMPDEST PUSH2 0x187 PUSH2 0x1F9 CALLDATASIZE PUSH1 0x4 PUSH2 0x133A JUMP JUMPDEST PUSH2 0x669 JUMP JUMPDEST PUSH2 0x187 PUSH2 0x20C CALLDATASIZE PUSH1 0x4 PUSH2 0x1405 JUMP JUMPDEST PUSH2 0x678 JUMP JUMPDEST PUSH2 0x13C PUSH2 0x21F CALLDATASIZE PUSH1 0x4 PUSH2 0x1284 JUMP JUMPDEST PUSH2 0x6B3 JUMP JUMPDEST PUSH2 0x1D5 PUSH2 0x232 CALLDATASIZE PUSH1 0x4 PUSH2 0x1481 JUMP JUMPDEST PUSH2 0x7C4 JUMP JUMPDEST PUSH2 0x11F PUSH2 0x245 CALLDATASIZE PUSH1 0x4 PUSH2 0x14E3 JUMP JUMPDEST PUSH1 0x1 PUSH1 0xA0 PUSH1 0x2 EXP SUB SWAP2 DUP3 AND PUSH1 0x0 SWAP1 DUP2 MSTORE PUSH1 0x5 PUSH1 0x20 SWAP1 DUP2 MSTORE PUSH1 0x40 DUP1 DUP4 KECCAK256 SWAP4 SWAP1 SWAP5 AND DUP3 MSTORE SWAP2 SWAP1 SWAP2 MSTORE KECCAK256 SLOAD PUSH1 0xFF AND SWAP1 JUMP JUMPDEST PUSH1 0x0 PUSH1 0x1 PUSH1 0xE0 PUSH1 0x2 EXP SUB NOT DUP3 AND PUSH32 0x80AC58CD00000000000000000000000000000000000000000000000000000000 EQ DUP1 PUSH2 0x2D6 JUMPI POP PUSH1 0x1 PUSH1 0xE0 PUSH1 0x2 EXP SUB NOT DUP3 AND PUSH32 0x5B5E139F00000000000000000000000000000000000000000000000000000000 EQ JUMPDEST DUP1 PUSH2 0x30A JUMPI POP PUSH32 0x1FFC9A700000000000000000000000000000000000000000000000000000000 PUSH1 0x1 PUSH1 0xE0 PUSH1 0x2 EXP SUB NOT DUP4 AND EQ JUMPDEST SWAP3 SWAP2 POP POP JUMP JUMPDEST PUSH1 0x60 PUSH1 0x0 DUP1 SLOAD PUSH2 0x31F SWAP1 PUSH2 0x1516 JUMP JUMPDEST DUP1 PUSH1 0x1F ADD PUSH1 0x20 DUP1 SWAP2 DIV MUL PUSH1 0x20 ADD PUSH1 0x40 MLOAD SWAP1 DUP2 ADD PUSH1 0x40 MSTORE DUP1 SWAP3 SWAP2 SWAP1 DUP2 DUP2 MSTORE PUSH1 0x20 ADD DUP3 DUP1 SLOAD PUSH2 0x34B SWAP1 PUSH2 0x1516 JUMP JUMPDEST DUP1 ISZERO PUSH2 0x398 JUMPI DUP1 PUSH1 0x1F LT PUSH2 0x36D JUMPI PUSH2 0x100 DUP1 DUP4 SLOAD DIV MUL DUP4 MSTORE SWAP2 PUSH1 0x20 ADD SWAP2 PUSH2 0x398 JUMP JUMPDEST DUP3 ADD SWAP2 SWAP1 PUSH1 0x0 MSTORE PUSH1 0x20 PUSH1 0x0 KECCAK256 SWAP1 JUMPDEST DUP2 SLOAD DUP2 MSTORE SWAP1 PUSH1 0x1 ADD SWAP1 PUSH1 0x20 ADD DUP1 DUP4 GT PUSH2 0x37B JUMPI DUP3 SWAP1 SUB PUSH1 0x1F AND DUP3 ADD SWAP2 JUMPDEST POP POP POP POP POP SWAP1 POP SWAP1 JUMP JUMPDEST PUSH1 0x0 PUSH2 0x3AD DUP3 PUSH2 0x7FB JUMP JUMPDEST POP PUSH1 0x0 SWAP1 DUP2 MSTORE PUSH1 0x4 PUSH1 0x20 MSTORE PUSH1 0x40 SWAP1 KECCAK256 SLOAD PUSH1 0x1 PUSH1 0xA0 PUSH1 0x2 EXP SUB AND SWAP1 JUMP JUMPDEST PUSH1 0x0 PUSH2 0x3D4 DUP3 PUSH2 0x555 JUMP JUMPDEST SWAP1 POP DUP1 PUSH1 0x1 PUSH1 0xA0 PUSH1 0x2 EXP SUB AND DUP4 PUSH1 0x1 PUSH1 0xA0 PUSH1 0x2 EXP SUB AND EQ ISZERO PUSH2 0x466 JUMPI PUSH1 0x40 MLOAD PUSH1 0xE5 PUSH1 0x2 EXP PUSH3 0x461BCD MUL DUP2 MSTORE PUSH1 0x20 PUSH1 0x4 DUP3 ADD MSTORE PUSH1 0x21 PUSH1 0x24 DUP3 ADD MSTORE PUSH32 0x4552433732313A20617070726F76616C20746F2063757272656E74206F776E65 PUSH1 0x44 DUP3 ADD MSTORE PUSH32 0x7200000000000000000000000000000000000000000000000000000000000000 PUSH1 0x64 DUP3 ADD MSTORE PUSH1 0x84 ADD JUMPDEST PUSH1 0x40 MLOAD DUP1 SWAP2 SUB SWAP1 REVERT JUMPDEST CALLER PUSH1 0x1 PUSH1 0xA0 PUSH1 0x2 EXP SUB DUP3 AND EQ DUP1 PUSH2 0x482 JUMPI POP PUSH2 0x482 DUP2 CALLER PUSH2 0x245 JUMP JUMPDEST PUSH2 0x4F7 JUMPI PUSH1 0x40 MLOAD PUSH1 0xE5 PUSH1 0x2 EXP PUSH3 0x461BCD MUL DUP2 MSTORE PUSH1 0x20 PUSH1 0x4 DUP3 ADD MSTORE PUSH1 0x3E PUSH1 0x24 DUP3 ADD MSTORE PUSH32 0x4552433732313A20617070726F76652063616C6C6572206973206E6F7420746F PUSH1 0x44 DUP3 ADD MSTORE PUSH32 0x6B656E206F776E6572206E6F7220617070726F76656420666F7220616C6C0000 PUSH1 0x64 DUP3 ADD MSTORE PUSH1 0x84 ADD PUSH2 0x45D JUMP JUMPDEST PUSH2 0x501 DUP4 DUP4 PUSH2 0x865 JUMP JUMPDEST POP POP POP JUMP JUMPDEST PUSH2 0x510 CALLER DUP3 PUSH2 0x8E0 JUMP JUMPDEST PUSH2 0x52F JUMPI PUSH1 0x40 MLOAD PUSH1 0xE5 PUSH1 0x2 EXP PUSH3 0x461BCD MUL DUP2 MSTORE PUSH1 0x4 ADD PUSH2 0x45D SWAP1 PUSH2 0x1554 JUMP JUMPDEST PUSH2 0x501 DUP4 DUP4 DUP4 PUSH2 0x95E JUMP JUMPDEST PUSH2 0x501 DUP4 DUP4 DUP4 PUSH1 0x40 MLOAD DUP1 PUSH1 0x20 ADD PUSH1 0x40 MSTORE DUP1 PUSH1 0x0 DUP2 MSTORE POP PUSH2 0x678 JUMP JUMPDEST PUSH1 0x0 DUP2 DUP2 MSTORE PUSH1 0x2 PUSH1 0x20 MSTORE PUSH1 0x40 DUP2 KECCAK256 SLOAD PUSH1 0x1 PUSH1 0xA0 PUSH1 0x2 EXP SUB AND DUP1 PUSH2 0x30A JUMPI PUSH1 0x40 MLOAD PUSH1 0xE5 PUSH1 0x2 EXP PUSH3 0x461BCD MUL DUP2 MSTORE PUSH1 0x20 PUSH1 0x4 DUP3 ADD MSTORE PUSH1 0x18 PUSH1 0x24 DUP3 ADD MSTORE PUSH32 0x4552433732313A20696E76616C696420746F6B656E2049440000000000000000 PUSH1 0x44 DUP3 ADD MSTORE PUSH1 0x64 ADD PUSH2 0x45D JUMP JUMPDEST PUSH1 0x0 PUSH1 0x1 PUSH1 0xA0 PUSH1 0x2 EXP SUB DUP3 AND PUSH2 0x63E JUMPI PUSH1 0x40 MLOAD PUSH1 0xE5 PUSH1 0x2 EXP PUSH3 0x461BCD MUL DUP2 MSTORE PUSH1 0x20 PUSH1 0x4 DUP3 ADD MSTORE PUSH1 0x29 PUSH1 0x24 DUP3 ADD MSTORE PUSH32 0x4552433732313A2061646472657373207A65726F206973206E6F742061207661 PUSH1 0x44 DUP3 ADD MSTORE PUSH32 0x6C6964206F776E65720000000000000000000000000000000000000000000000 PUSH1 0x64 DUP3 ADD MSTORE PUSH1 0x84 ADD PUSH2 0x45D JUMP JUMPDEST POP PUSH1 0x1 PUSH1 0xA0 PUSH1 0x2 EXP SUB AND PUSH1 0x0 SWAP1 DUP2 MSTORE PUSH1 0x3 PUSH1 0x20 MSTORE PUSH1 0x40 SWAP1 KECCAK256 SLOAD SWAP1 JUMP JUMPDEST PUSH1 0x60 PUSH1 0x1 DUP1 SLOAD PUSH2 0x31F SWAP1 PUSH2 0x1516 JUMP JUMPDEST PUSH2 0x674 CALLER DUP4 DUP4 PUSH2 0xB3E JUMP JUMPDEST POP POP JUMP JUMPDEST PUSH2 0x682 CALLER DUP4 PUSH2 0x8E0 JUMP JUMPDEST PUSH2 0x6A1 JUMPI PUSH1 0x40 MLOAD PUSH1 0xE5 PUSH1 0x2 EXP PUSH3 0x461BCD MUL DUP2 MSTORE PUSH1 0x4 ADD PUSH2 0x45D SWAP1 PUSH2 0x1554 JUMP JUMPDEST PUSH2 0x6AD DUP5 DUP5 DUP5 DUP5 PUSH2 0xC10 JUMP JUMPDEST POP POP POP POP JUMP JUMPDEST PUSH1 0x60 PUSH2 0x6BE DUP3 PUSH2 0x7FB JUMP JUMPDEST PUSH1 0x0 DUP3 DUP2 MSTORE PUSH1 0x6 PUSH1 0x20 MSTORE PUSH1 0x40 DUP2 KECCAK256 DUP1 SLOAD PUSH2 0x6D7 SWAP1 PUSH2 0x1516 JUMP JUMPDEST DUP1 PUSH1 0x1F ADD PUSH1 0x20 DUP1 SWAP2 DIV MUL PUSH1 0x20 ADD PUSH1 0x40 MLOAD SWAP1 DUP2 ADD PUSH1 0x40 MSTORE DUP1 SWAP3 SWAP2 SWAP1 DUP2 DUP2 MSTORE PUSH1 0x20 ADD DUP3 DUP1 SLOAD PUSH2 0x703 SWAP1 PUSH2 0x1516 JUMP JUMPDEST DUP1 ISZERO PUSH2 0x750 JUMPI DUP1 PUSH1 0x1F LT PUSH2 0x725 JUMPI PUSH2 0x100 DUP1 DUP4 SLOAD DIV MUL DUP4 MSTORE SWAP2 PUSH1 0x20 ADD SWAP2 PUSH2 0x750 JUMP JUMPDEST DUP3 ADD SWAP2 SWAP1 PUSH1 0x0 MSTORE PUSH1 0x20 PUSH1 0x0 KECCAK256 SWAP1 JUMPDEST DUP2 SLOAD DUP2 MSTORE SWAP1 PUSH1 0x1 ADD SWAP1 PUSH1 0x20 ADD DUP1 DUP4 GT PUSH2 0x733 JUMPI DUP3 SWAP1 SUB PUSH1 0x1F AND DUP3 ADD SWAP2 JUMPDEST POP POP POP POP POP SWAP1 POP PUSH1 0x0 PUSH2 0x76E PUSH1 0x40 DUP1 MLOAD PUSH1 0x20 DUP2 ADD SWAP1 SWAP2 MSTORE PUSH1 0x0 DUP2 MSTORE SWAP1 JUMP JUMPDEST SWAP1 POP DUP1 MLOAD PUSH1 0x0 EQ ISZERO PUSH2 0x781 JUMPI POP SWAP3 SWAP2 POP POP JUMP JUMPDEST DUP2 MLOAD ISZERO PUSH2 0x7B3 JUMPI DUP1 DUP3 PUSH1 0x40 MLOAD PUSH1 0x20 ADD PUSH2 0x79B SWAP3 SWAP2 SWAP1 PUSH2 0x15B1 JUMP JUMPDEST PUSH1 0x40 MLOAD PUSH1 0x20 DUP2 DUP4 SUB SUB DUP2 MSTORE SWAP1 PUSH1 0x40 MSTORE SWAP3 POP POP POP SWAP2 SWAP1 POP JUMP JUMPDEST PUSH2 0x7BC DUP5 PUSH2 0xC46 JUMP JUMPDEST SWAP5 SWAP4 POP POP POP POP JUMP JUMPDEST PUSH1 0x0 DUP1 PUSH2 0x7D0 PUSH1 0x7 SLOAD SWAP1 JUMP JUMPDEST SWAP1 POP PUSH2 0x7DC DUP5 DUP3 PUSH2 0xCB9 JUMP JUMPDEST PUSH2 0x7E6 DUP2 DUP5 PUSH2 0xE0E JUMP JUMPDEST PUSH2 0x7F4 PUSH1 0x7 DUP1 SLOAD PUSH1 0x1 ADD SWAP1 SSTORE JUMP JUMPDEST SWAP4 SWAP3 POP POP POP JUMP JUMPDEST PUSH1 0x0 DUP2 DUP2 MSTORE PUSH1 0x2 PUSH1 0x20 MSTORE PUSH1 0x40 SWAP1 KECCAK256 SLOAD PUSH1 0x1 PUSH1 0xA0 PUSH1 0x2 EXP SUB AND PUSH2 0x862 JUMPI PUSH1 0x40 MLOAD PUSH1 0xE5 PUSH1 0x2 EXP PUSH3 0x461BCD MUL DUP2 MSTORE PUSH1 0x20 PUSH1 0x4 DUP3 ADD MSTORE PUSH1 0x18 PUSH1 0x24 DUP3 ADD MSTORE PUSH32 0x4552433732313A20696E76616C696420746F6B656E2049440000000000000000 PUSH1 0x44 DUP3 ADD MSTORE PUSH1 0x64 ADD PUSH2 0x45D JUMP JUMPDEST POP JUMP JUMPDEST PUSH1 0x0 DUP2 DUP2 MSTORE PUSH1 0x4 PUSH1 0x20 MSTORE PUSH1 0x40 SWAP1 KECCAK256 DUP1 SLOAD PUSH20 0xFFFFFFFFFFFFFFFFFFFFFFFFFFFFFFFFFFFFFFFF NOT AND PUSH1 0x1 PUSH1 0xA0 PUSH1 0x2 EXP SUB DUP5 AND SWAP1 DUP2 OR SWAP1 SWAP2 SSTORE DUP2 SWAP1 PUSH2 0x8A7 DUP3 PUSH2 0x555 JUMP JUMPDEST PUSH1 0x1 PUSH1 0xA0 PUSH1 0x2 EXP SUB AND PUSH32 0x8C5BE1E5EBEC7D5BD14F71427D1E84F3DD0314C0F7B2291E5B200AC8C7C3B925 PUSH1 0x40 MLOAD PUSH1 0x40 MLOAD DUP1 SWAP2 SUB SWAP1 LOG4 POP POP JUMP JUMPDEST PUSH1 0x0 DUP1 PUSH2 0x8EC DUP4 PUSH2 0x555 JUMP JUMPDEST SWAP1 POP DUP1 PUSH1 0x1 PUSH1 0xA0 PUSH1 0x2 EXP SUB AND DUP5 PUSH1 0x1 PUSH1 0xA0 PUSH1 0x2 EXP SUB AND EQ DUP1 PUSH2 0x933 JUMPI POP PUSH1 0x1 PUSH1 0xA0 PUSH1 0x2 EXP SUB DUP1 DUP3 AND PUSH1 0x0 SWAP1 DUP2 MSTORE PUSH1 0x5 PUSH1 0x20 SWAP1 DUP2 MSTORE PUSH1 0x40 DUP1 DUP4 KECCAK256 SWAP4 DUP9 AND DUP4 MSTORE SWAP3 SWAP1 MSTORE KECCAK256 SLOAD PUSH1 0xFF AND JUMPDEST DUP1 PUSH2 0x7BC JUMPI POP DUP4 PUSH1 0x1 PUSH1 0xA0 PUSH1 0x2 EXP SUB AND PUSH2 0x94C DUP5 PUSH2 0x3A2 JUMP JUMPDEST PUSH1 0x1 PUSH1 0xA0 PUSH1 0x2 EXP SUB AND EQ SWAP5 SWAP4 POP POP POP POP JUMP JUMPDEST DUP3 PUSH1 0x1 PUSH1 0xA0 PUSH1 0x2 EXP SUB AND PUSH2 0x971 DUP3 PUSH2 0x555 JUMP JUMPDEST PUSH1 0x1 PUSH1 0xA0 PUSH1 0x2 EXP SUB AND EQ PUSH2 0x9F0 JUMPI PUSH1 0x40 MLOAD PUSH1 0xE5 PUSH1 0x2 EXP PUSH3 0x461BCD MUL DUP2 MSTORE PUSH1 0x20 PUSH1 0x4 DUP3 ADD MSTORE PUSH1 0x25 PUSH1 0x24 DUP3 ADD MSTORE PUSH32 0x4552433732313A207472616E736665722066726F6D20696E636F727265637420 PUSH1 0x44 DUP3 ADD MSTORE PUSH32 0x6F776E6572000000000000000000000000000000000000000000000000000000 PUSH1 0x64 DUP3 ADD MSTORE PUSH1 0x84 ADD PUSH2 0x45D JUMP JUMPDEST PUSH1 0x1 PUSH1 0xA0 PUSH1 0x2 EXP SUB DUP3 AND PUSH2 0xA6E JUMPI PUSH1 0x40 MLOAD PUSH1 0xE5 PUSH1 0x2 EXP PUSH3 0x461BCD MUL DUP2 MSTORE PUSH1 0x20 PUSH1 0x4 DUP3 ADD MSTORE PUSH1 0x24 DUP1 DUP3 ADD MSTORE PUSH32 0x4552433732313A207472616E7366657220746F20746865207A65726F20616464 PUSH1 0x44 DUP3 ADD MSTORE PUSH32 0x7265737300000000000000000000000000000000000000000000000000000000 PUSH1 0x64 DUP3 ADD MSTORE PUSH1 0x84 ADD PUSH2 0x45D JUMP JUMPDEST PUSH2 0xA79 PUSH1 0x0 DUP3 PUSH2 0x865 JUMP JUMPDEST PUSH1 0x1 PUSH1 0xA0 PUSH1 0x2 EXP SUB DUP4 AND PUSH1 0x0 SWAP1 DUP2 MSTORE PUSH1 0x3 PUSH1 0x20 MSTORE PUSH1 0x40 DUP2 KECCAK256 DUP1 SLOAD PUSH1 0x1 SWAP3 SWAP1 PUSH2 0xAA2 SWAP1 DUP5 SWAP1 PUSH2 0x15F9 JUMP JUMPDEST SWAP1 SWAP2 SSTORE POP POP PUSH1 0x1 PUSH1 0xA0 PUSH1 0x2 EXP SUB DUP3 AND PUSH1 0x0 SWAP1 DUP2 MSTORE PUSH1 0x3 PUSH1 0x20 MSTORE PUSH1 0x40 DUP2 KECCAK256 DUP1 SLOAD PUSH1 0x1 SWAP3 SWAP1 PUSH2 0xAD0 SWAP1 DUP5 SWAP1 PUSH2 0x1610 JUMP JUMPDEST SWAP1 SWAP2 SSTORE POP POP PUSH1 0x0 DUP2 DUP2 MSTORE PUSH1 0x2 PUSH1 0x20 MSTORE PUSH1 0x40 DUP1 DUP3 KECCAK256 DUP1 SLOAD PUSH20 0xFFFFFFFFFFFFFFFFFFFFFFFFFFFFFFFFFFFFFFFF NOT AND PUSH1 0x1 PUSH1 0xA0 PUSH1 0x2 EXP SUB DUP7 DUP2 AND SWAP2 DUP3 OR SWAP1 SWAP3 SSTORE SWAP2 MLOAD DUP5 SWAP4 SWAP2 DUP8 AND SWAP2 PUSH32 0xDDF252AD1BE2C89B69C2B068FC378DAA952BA7F163C4A11628F55A4DF523B3EF SWAP2 LOG4 POP POP POP JUMP JUMPDEST DUP2 PUSH1 0x1 PUSH1 0xA0 PUSH1 0x2 EXP SUB AND DUP4 PUSH1 0x1 PUSH1 0xA0 PUSH1 0x2 EXP SUB AND EQ ISZERO PUSH2 0xBA3 JUMPI PUSH1 0x40 MLOAD PUSH1 0xE5 PUSH1 0x2 EXP PUSH3 0x461BCD MUL DUP2 MSTORE PUSH1 0x20 PUSH1 0x4 DUP3 ADD MSTORE PUSH1 0x19 PUSH1 0x24 DUP3 ADD MSTORE PUSH32 0x4552433732313A20617070726F766520746F2063616C6C657200000000000000 PUSH1 0x44 DUP3 ADD MSTORE PUSH1 0x64 ADD PUSH2 0x45D JUMP JUMPDEST PUSH1 0x1 PUSH1 0xA0 PUSH1 0x2 EXP SUB DUP4 DUP2 AND PUSH1 0x0 DUP2 DUP2 MSTORE PUSH1 0x5 PUSH1 0x20 SWAP1 DUP2 MSTORE PUSH1 0x40 DUP1 DUP4 KECCAK256 SWAP5 DUP8 AND DUP1 DUP5 MSTORE SWAP5 DUP3 MSTORE SWAP2 DUP3 SWAP1 KECCAK256 DUP1 SLOAD PUSH1 0xFF NOT AND DUP7 ISZERO ISZERO SWAP1 DUP2 OR SWAP1 SWAP2 SSTORE SWAP2 MLOAD SWAP2 DUP3 MSTORE PUSH32 0x17307EAB39AB6107E8899845AD3D59BD9653F200F220920489CA2B5937696C31 SWAP2 ADD PUSH1 0x40 MLOAD DUP1 SWAP2 SUB SWAP1 LOG3 POP POP POP JUMP JUMPDEST PUSH2 0xC1B DUP5 DUP5 DUP5 PUSH2 0x95E JUMP JUMPDEST PUSH2 0xC27 DUP5 DUP5 DUP5 DUP5 PUSH2 0xEBA JUMP JUMPDEST PUSH2 0x6AD JUMPI PUSH1 0x40 MLOAD PUSH1 0xE5 PUSH1 0x2 EXP PUSH3 0x461BCD MUL DUP2 MSTORE PUSH1 0x4 ADD PUSH2 0x45D SWAP1 PUSH2 0x1628 JUMP JUMPDEST PUSH1 0x60 PUSH2 0xC51 DUP3 PUSH2 0x7FB JUMP JUMPDEST PUSH1 0x0 PUSH2 0xC68 PUSH1 0x40 DUP1 MLOAD PUSH1 0x20 DUP2 ADD SWAP1 SWAP2 MSTORE PUSH1 0x0 DUP2 MSTORE SWAP1 JUMP JUMPDEST SWAP1 POP PUSH1 0x0 DUP2 MLOAD GT PUSH2 0xC88 JUMPI PUSH1 0x40 MLOAD DUP1 PUSH1 0x20 ADD PUSH1 0x40 MSTORE DUP1 PUSH1 0x0 DUP2 MSTORE POP PUSH2 0x7F4 JUMP JUMPDEST DUP1 PUSH2 0xC92 DUP5 PUSH2 0xFFC JUMP JUMPDEST PUSH1 0x40 MLOAD PUSH1 0x20 ADD PUSH2 0xCA3 SWAP3 SWAP2 SWAP1 PUSH2 0x15B1 JUMP JUMPDEST PUSH1 0x40 MLOAD PUSH1 0x20 DUP2 DUP4 SUB SUB DUP2 MSTORE SWAP1 PUSH1 0x40 MSTORE SWAP4 SWAP3 POP POP POP JUMP JUMPDEST PUSH1 0x1 PUSH1 0xA0 PUSH1 0x2 EXP SUB DUP3 AND PUSH2 0xD12 JUMPI PUSH1 0x40 MLOAD PUSH1 0xE5 PUSH1 0x2 EXP PUSH3 0x461BCD MUL DUP2 MSTORE PUSH1 0x20 PUSH1 0x4 DUP3 ADD DUP2 SWAP1 MSTORE PUSH1 0x24 DUP3 ADD MSTORE PUSH32 0x4552433732313A206D696E7420746F20746865207A65726F2061646472657373 PUSH1 0x44 DUP3 ADD MSTORE PUSH1 0x64 ADD PUSH2 0x45D JUMP JUMPDEST PUSH1 0x0 DUP2 DUP2 MSTORE PUSH1 0x2 PUSH1 0x20 MSTORE PUSH1 0x40 SWAP1 KECCAK256 SLOAD PUSH1 0x1 PUSH1 0xA0 PUSH1 0x2 EXP SUB AND ISZERO PUSH2 0xD7A JUMPI PUSH1 0x40 MLOAD PUSH1 0xE5 PUSH1 0x2 EXP PUSH3 0x461BCD MUL DUP2 MSTORE PUSH1 0x20 PUSH1 0x4 DUP3 ADD MSTORE PUSH1 0x1C PUSH1 0x24 DUP3 ADD MSTORE PUSH32 0x4552433732313A20746F6B656E20616C7265616479206D696E74656400000000 PUSH1 0x44 DUP3 ADD MSTORE PUSH1 0x64 ADD PUSH2 0x45D JUMP JUMPDEST PUSH1 0x1 PUSH1 0xA0 PUSH1 0x2 EXP SUB DUP3 AND PUSH1 0x0 SWAP1 DUP2 MSTORE PUSH1 0x3 PUSH1 0x20 MSTORE PUSH1 0x40 DUP2 KECCAK256 DUP1 SLOAD PUSH1 0x1 SWAP3 SWAP1 PUSH2 0xDA3 SWAP1 DUP5 SWAP1 PUSH2 0x1610 JUMP JUMPDEST SWAP1 SWAP2 SSTORE POP POP PUSH1 0x0 DUP2 DUP2 MSTORE PUSH1 0x2 PUSH1 0x20 MSTORE PUSH1 0x40 DUP1 DUP3 KECCAK256 DUP1 SLOAD PUSH20 0xFFFFFFFFFFFFFFFFFFFFFFFFFFFFFFFFFFFFFFFF NOT AND PUSH1 0x1 PUSH1 0xA0 PUSH1 0x2 EXP SUB DUP7 AND SWAP1 DUP2 OR SWAP1 SWAP2 SSTORE SWAP1 MLOAD DUP4 SWAP3 SWAP1 PUSH32 0xDDF252AD1BE2C89B69C2B068FC378DAA952BA7F163C4A11628F55A4DF523B3EF SWAP1 DUP3 SWAP1 LOG4 POP POP JUMP JUMPDEST PUSH1 0x0 DUP3 DUP2 MSTORE PUSH1 0x2 PUSH1 0x20 MSTORE PUSH1 0x40 SWAP1 KECCAK256 SLOAD PUSH1 0x1 PUSH1 0xA0 PUSH1 0x2 EXP SUB AND PUSH2 0xE9B JUMPI PUSH1 0x40 MLOAD PUSH1 0xE5 PUSH1 0x2 EXP PUSH3 0x461BCD MUL DUP2 MSTORE PUSH1 0x20 PUSH1 0x4 DUP3 ADD MSTORE PUSH1 0x2E PUSH1 0x24 DUP3 ADD MSTORE PUSH32 0x45524337323155524953746F726167653A2055524920736574206F66206E6F6E PUSH1 0x44 DUP3 ADD MSTORE PUSH32 0x6578697374656E7420746F6B656E000000000000000000000000000000000000 PUSH1 0x64 DUP3 ADD MSTORE PUSH1 0x84 ADD PUSH2 0x45D JUMP JUMPDEST PUSH1 0x0 DUP3 DUP2 MSTORE PUSH1 0x6 PUSH1 0x20 SWAP1 DUP2 MSTORE PUSH1 0x40 SWAP1 SWAP2 KECCAK256 DUP3 MLOAD PUSH2 0x501 SWAP3 DUP5 ADD SWAP1 PUSH2 0x114D JUMP JUMPDEST PUSH1 0x0 PUSH1 0x1 PUSH1 0xA0 PUSH1 0x2 EXP SUB DUP5 AND EXTCODESIZE ISZERO PUSH2 0xFF1 JUMPI PUSH1 0x40 MLOAD PUSH32 0x150B7A0200000000000000000000000000000000000000000000000000000000 DUP2 MSTORE PUSH1 0x1 PUSH1 0xA0 PUSH1 0x2 EXP SUB DUP6 AND SWAP1 PUSH4 0x150B7A02 SWAP1 PUSH2 0xF17 SWAP1 CALLER SWAP1 DUP10 SWAP1 DUP9 SWAP1 DUP9 SWAP1 PUSH1 0x4 ADD PUSH2 0x1685 JUMP JUMPDEST PUSH1 0x20 PUSH1 0x40 MLOAD DUP1 DUP4 SUB DUP2 PUSH1 0x0 DUP8 DUP1 EXTCODESIZE ISZERO DUP1 ISZERO PUSH2 0xF31 JUMPI PUSH1 0x0 DUP1 REVERT JUMPDEST POP GAS CALL SWAP3 POP POP POP DUP1 ISZERO PUSH2 0xF61 JUMPI POP PUSH1 0x40 DUP1 MLOAD PUSH1 0x1F RETURNDATASIZE SWAP1 DUP2 ADD PUSH1 0x1F NOT AND DUP3 ADD SWAP1 SWAP3 MSTORE PUSH2 0xF5E SWAP2 DUP2 ADD SWAP1 PUSH2 0x16C1 JUMP JUMPDEST PUSH1 0x1 JUMPDEST PUSH2 0xFBE JUMPI RETURNDATASIZE DUP1 DUP1 ISZERO PUSH2 0xF8F JUMPI PUSH1 0x40 MLOAD SWAP2 POP PUSH1 0x1F NOT PUSH1 0x3F RETURNDATASIZE ADD AND DUP3 ADD PUSH1 0x40 MSTORE RETURNDATASIZE DUP3 MSTORE RETURNDATASIZE PUSH1 0x0 PUSH1 0x20 DUP5 ADD RETURNDATACOPY PUSH2 0xF94 JUMP JUMPDEST PUSH1 0x60 SWAP2 POP JUMPDEST POP DUP1 MLOAD PUSH2 0xFB6 JUMPI PUSH1 0x40 MLOAD PUSH1 0xE5 PUSH1 0x2 EXP PUSH3 0x461BCD MUL DUP2 MSTORE PUSH1 0x4 ADD PUSH2 0x45D SWAP1 PUSH2 0x1628 JUMP JUMPDEST DUP1 MLOAD DUP2 PUSH1 0x20 ADD REVERT JUMPDEST PUSH1 0x1 PUSH1 0xE0 PUSH1 0x2 EXP SUB NOT AND PUSH32 0x150B7A0200000000000000000000000000000000000000000000000000000000 EQ SWAP1 POP PUSH2 0x7BC JUMP JUMPDEST POP PUSH1 0x1 SWAP5 SWAP4 POP POP POP POP JUMP JUMPDEST PUSH1 0x60 DUP2 PUSH2 0x103C JUMPI POP POP PUSH1 0x40 DUP1 MLOAD DUP1 DUP3 ADD SWAP1 SWAP2 MSTORE PUSH1 0x1 DUP2 MSTORE PUSH32 0x3000000000000000000000000000000000000000000000000000000000000000 PUSH1 0x20 DUP3 ADD MSTORE SWAP1 JUMP JUMPDEST DUP2 PUSH1 0x0 JUMPDEST DUP2 ISZERO PUSH2 0x1066 JUMPI DUP1 PUSH2 0x1050 DUP2 PUSH2 0x16DE JUMP JUMPDEST SWAP2 POP PUSH2 0x105F SWAP1 POP PUSH1 0xA DUP4 PUSH2 0x1712 JUMP JUMPDEST SWAP2 POP PUSH2 0x1040 JUMP JUMPDEST PUSH1 0x0 DUP2 PUSH8 0xFFFFFFFFFFFFFFFF DUP2 GT ISZERO PUSH2 0x1081 JUMPI PUSH2 0x1081 PUSH2 0x1376 JUMP JUMPDEST PUSH1 0x40 MLOAD SWAP1 DUP1 DUP3 MSTORE DUP1 PUSH1 0x1F ADD PUSH1 0x1F NOT AND PUSH1 0x20 ADD DUP3 ADD PUSH1 0x40 MSTORE DUP1 ISZERO PUSH2 0x10AB JUMPI PUSH1 0x20 DUP3 ADD DUP2 DUP1 CALLDATASIZE DUP4 CALLDATACOPY ADD SWAP1 POP JUMPDEST POP SWAP1 POP JUMPDEST DUP5 ISZERO PUSH2 0x7BC JUMPI PUSH2 0x10C0 PUSH1 0x1 DUP4 PUSH2 0x15F9 JUMP JUMPDEST SWAP2 POP PUSH2 0x10CD PUSH1 0xA DUP7 PUSH2 0x1726 JUMP JUMPDEST PUSH2 0x10D8 SWAP1 PUSH1 0x30 PUSH2 0x1610 JUMP JUMPDEST PUSH32 0x100000000000000000000000000000000000000000000000000000000000000 MUL DUP2 DUP4 DUP2 MLOAD DUP2 LT PUSH2 0x110C JUMPI PUSH2 0x110C PUSH2 0x173A JUMP JUMPDEST PUSH1 0x20 ADD ADD SWAP1 PUSH31 0xFFFFFFFFFFFFFFFFFFFFFFFFFFFFFFFFFFFFFFFFFFFFFFFFFFFFFFFFFFFFFF NOT AND SWAP1 DUP2 PUSH1 0x0 BYTE SWAP1 MSTORE8 POP PUSH2 0x1146 PUSH1 0xA DUP7 PUSH2 0x1712 JUMP JUMPDEST SWAP5 POP PUSH2 0x10AF JUMP JUMPDEST DUP3 DUP1 SLOAD PUSH2 0x1159 SWAP1 PUSH2 0x1516 JUMP JUMPDEST SWAP1 PUSH1 0x0 MSTORE PUSH1 0x20 PUSH1 0x0 KECCAK256 SWAP1 PUSH1 0x1F ADD PUSH1 0x20 SWAP1 DIV DUP2 ADD SWAP3 DUP3 PUSH2 0x117B JUMPI PUSH1 0x0 DUP6 SSTORE PUSH2 0x11C1 JUMP JUMPDEST DUP3 PUSH1 0x1F LT PUSH2 0x1194 JUMPI DUP1 MLOAD PUSH1 0xFF NOT AND DUP4 DUP1 ADD OR DUP6 SSTORE PUSH2 0x11C1 JUMP JUMPDEST DUP3 DUP1 ADD PUSH1 0x1 ADD DUP6 SSTORE DUP3 ISZERO PUSH2 0x11C1 JUMPI SWAP2 DUP3 ADD JUMPDEST DUP3 DUP2 GT ISZERO PUSH2 0x11C1 JUMPI DUP3 MLOAD DUP3 SSTORE SWAP2 PUSH1 0x20 ADD SWAP2 SWAP1 PUSH1 0x1 ADD SWAP1 PUSH2 0x11A6 JUMP JUMPDEST POP PUSH2 0x11CD SWAP3 SWAP2 POP PUSH2 0x11D1 JUMP JUMPDEST POP SWAP1 JUMP JUMPDEST JUMPDEST DUP1 DUP3 GT ISZERO PUSH2 0x11CD JUMPI PUSH1 0x0 DUP2 SSTORE PUSH1 0x1 ADD PUSH2 0x11D2 JUMP JUMPDEST PUSH1 0x1 PUSH1 0xE0 PUSH1 0x2 EXP SUB NOT DUP2 AND DUP2 EQ PUSH2 0x862 JUMPI PUSH1 0x0 DUP1 REVERT JUMPDEST PUSH1 0x0 PUSH1 0x20 DUP3 DUP5 SUB SLT ISZERO PUSH2 0x120E JUMPI PUSH1 0x0 DUP1 REVERT JUMPDEST DUP2 CALLDATALOAD PUSH2 0x7F4 DUP2 PUSH2 0x11E6 JUMP JUMPDEST PUSH1 0x0 JUMPDEST DUP4 DUP2 LT ISZERO PUSH2 0x1234 JUMPI DUP2 DUP2 ADD MLOAD DUP4 DUP3 ADD MSTORE PUSH1 0x20 ADD PUSH2 0x121C JUMP JUMPDEST DUP4 DUP2 GT ISZERO PUSH2 0x6AD JUMPI POP POP PUSH1 0x0 SWAP2 ADD MSTORE JUMP JUMPDEST PUSH1 0x0 DUP2 MLOAD DUP1 DUP5 MSTORE PUSH2 0x125D DUP2 PUSH1 0x20 DUP7 ADD PUSH1 0x20 DUP7 ADD PUSH2 0x1219 JUMP JUMPDEST PUSH1 0x1F ADD PUSH1 0x1F NOT AND SWAP3 SWAP1 SWAP3 ADD PUSH1 0x20 ADD SWAP3 SWAP2 POP POP JUMP JUMPDEST PUSH1 0x20 DUP2 MSTORE PUSH1 0x0 PUSH2 0x7F4 PUSH1 0x20 DUP4 ADD DUP5 PUSH2 0x1245 JUMP JUMPDEST PUSH1 0x0 PUSH1 0x20 DUP3 DUP5 SUB SLT ISZERO PUSH2 0x1296 JUMPI PUSH1 0x0 DUP1 REVERT JUMPDEST POP CALLDATALOAD SWAP2 SWAP1 POP JUMP JUMPDEST DUP1 CALLDATALOAD PUSH1 0x1 PUSH1 0xA0 PUSH1 0x2 EXP SUB DUP2 AND DUP2 EQ PUSH2 0x12B4 JUMPI PUSH1 0x0 DUP1 REVERT JUMPDEST SWAP2 SWAP1 POP JUMP JUMPDEST PUSH1 0x0 DUP1 PUSH1 0x40 DUP4 DUP6 SUB SLT ISZERO PUSH2 0x12CC JUMPI PUSH1 0x0 DUP1 REVERT JUMPDEST PUSH2 0x12D5 DUP4 PUSH2 0x129D JUMP JUMPDEST SWAP5 PUSH1 0x20 SWAP4 SWAP1 SWAP4 ADD CALLDATALOAD SWAP4 POP POP POP JUMP JUMPDEST PUSH1 0x0 DUP1 PUSH1 0x0 PUSH1 0x60 DUP5 DUP7 SUB SLT ISZERO PUSH2 0x12F8 JUMPI PUSH1 0x0 DUP1 REVERT JUMPDEST PUSH2 0x1301 DUP5 PUSH2 0x129D JUMP JUMPDEST SWAP3 POP PUSH2 0x130F PUSH1 0x20 DUP6 ADD PUSH2 0x129D JUMP JUMPDEST SWAP2 POP PUSH1 0x40 DUP5 ADD CALLDATALOAD SWAP1 POP SWAP3 POP SWAP3 POP SWAP3 JUMP JUMPDEST PUSH1 0x0 PUSH1 0x20 DUP3 DUP5 SUB SLT ISZERO PUSH2 0x1331 JUMPI PUSH1 0x0 DUP1 REVERT JUMPDEST PUSH2 0x7F4 DUP3 PUSH2 0x129D JUMP JUMPDEST PUSH1 0x0 DUP1 PUSH1 0x40 DUP4 DUP6 SUB SLT ISZERO PUSH2 0x134D JUMPI PUSH1 0x0 DUP1 REVERT JUMPDEST PUSH2 0x1356 DUP4 PUSH2 0x129D JUMP JUMPDEST SWAP2 POP PUSH1 0x20 DUP4 ADD CALLDATALOAD DUP1 ISZERO ISZERO DUP2 EQ PUSH2 0x136B JUMPI PUSH1 0x0 DUP1 REVERT JUMPDEST DUP1 SWAP2 POP POP SWAP3 POP SWAP3 SWAP1 POP JUMP JUMPDEST PUSH1 0xE0 PUSH1 0x2 EXP PUSH4 0x4E487B71 MUL PUSH1 0x0 MSTORE PUSH1 0x41 PUSH1 0x4 MSTORE PUSH1 0x24 PUSH1 0x0 REVERT JUMPDEST PUSH1 0x0 PUSH8 0xFFFFFFFFFFFFFFFF DUP1 DUP5 GT ISZERO PUSH2 0x13AA JUMPI PUSH2 0x13AA PUSH2 0x1376 JUMP JUMPDEST PUSH1 0x40 MLOAD PUSH1 0x1F DUP6 ADD PUSH1 0x1F NOT SWAP1 DUP2 AND PUSH1 0x3F ADD AND DUP2 ADD SWAP1 DUP3 DUP3 GT DUP2 DUP4 LT OR ISZERO PUSH2 0x13D2 JUMPI PUSH2 0x13D2 PUSH2 0x1376 JUMP JUMPDEST DUP2 PUSH1 0x40 MSTORE DUP1 SWAP4 POP DUP6 DUP2 MSTORE DUP7 DUP7 DUP7 ADD GT ISZERO PUSH2 0x13EB JUMPI PUSH1 0x0 DUP1 REVERT JUMPDEST DUP6 DUP6 PUSH1 0x20 DUP4 ADD CALLDATACOPY PUSH1 0x0 PUSH1 0x20 DUP8 DUP4 ADD ADD MSTORE POP POP POP SWAP4 SWAP3 POP POP POP JUMP JUMPDEST PUSH1 0x0 DUP1 PUSH1 0x0 DUP1 PUSH1 0x80 DUP6 DUP8 SUB SLT ISZERO PUSH2 0x141B JUMPI PUSH1 0x0 DUP1 REVERT JUMPDEST PUSH2 0x1424 DUP6 PUSH2 0x129D JUMP JUMPDEST SWAP4 POP PUSH2 0x1432 PUSH1 0x20 DUP7 ADD PUSH2 0x129D JUMP JUMPDEST SWAP3 POP PUSH1 0x40 DUP6 ADD CALLDATALOAD SWAP2 POP PUSH1 0x60 DUP6 ADD CALLDATALOAD PUSH8 0xFFFFFFFFFFFFFFFF DUP2 GT ISZERO PUSH2 0x1455 JUMPI PUSH1 0x0 DUP1 REVERT JUMPDEST DUP6 ADD PUSH1 0x1F DUP2 ADD DUP8 SGT PUSH2 0x1466 JUMPI PUSH1 0x0 DUP1 REVERT JUMPDEST PUSH2 0x1475 DUP8 DUP3 CALLDATALOAD PUSH1 0x20 DUP5 ADD PUSH2 0x138F JUMP JUMPDEST SWAP2 POP POP SWAP3 SWAP6 SWAP2 SWAP5 POP SWAP3 POP JUMP JUMPDEST PUSH1 0x0 DUP1 PUSH1 0x40 DUP4 DUP6 SUB SLT ISZERO PUSH2 0x1494 JUMPI PUSH1 0x0 DUP1 REVERT JUMPDEST PUSH2 0x149D DUP4 PUSH2 0x129D JUMP JUMPDEST SWAP2 POP PUSH1 0x20 DUP4 ADD CALLDATALOAD PUSH8 0xFFFFFFFFFFFFFFFF DUP2 GT ISZERO PUSH2 0x14B9 JUMPI PUSH1 0x0 DUP1 REVERT JUMPDEST DUP4 ADD PUSH1 0x1F DUP2 ADD DUP6 SGT PUSH2 0x14CA JUMPI PUSH1 0x0 DUP1 REVERT JUMPDEST PUSH2 0x14D9 DUP6 DUP3 CALLDATALOAD PUSH1 0x20 DUP5 ADD PUSH2 0x138F JUMP JUMPDEST SWAP2 POP POP SWAP3 POP SWAP3 SWAP1 POP JUMP JUMPDEST PUSH1 0x0 DUP1 PUSH1 0x40 DUP4 DUP6 SUB SLT ISZERO PUSH2 0x14F6 JUMPI PUSH1 0x0 DUP1 REVERT JUMPDEST PUSH2 0x14FF DUP4 PUSH2 0x129D JUMP JUMPDEST SWAP2 POP PUSH2 0x150D PUSH1 0x20 DUP5 ADD PUSH2 0x129D JUMP JUMPDEST SWAP1 POP SWAP3 POP SWAP3 SWAP1 POP JUMP JUMPDEST PUSH1 0x2 DUP2 DIV PUSH1 0x1 DUP3 AND DUP1 PUSH2 0x152A JUMPI PUSH1 0x7F DUP3 AND SWAP2 POP JUMPDEST PUSH1 0x20 DUP3 LT DUP2 EQ ISZERO PUSH2 0x154E JUMPI PUSH1 0xE0 PUSH1 0x2 EXP PUSH4 0x4E487B71 MUL PUSH1 0x0 MSTORE PUSH1 0x22 PUSH1 0x4 MSTORE PUSH1 0x24 PUSH1 0x0 REVERT JUMPDEST POP SWAP2 SWAP1 POP JUMP JUMPDEST PUSH1 0x20 DUP1 DUP3 MSTORE PUSH1 0x2E SWAP1 DUP3 ADD MSTORE PUSH32 0x4552433732313A2063616C6C6572206973206E6F7420746F6B656E206F776E65 PUSH1 0x40 DUP3 ADD MSTORE PUSH32 0x72206E6F7220617070726F766564000000000000000000000000000000000000 PUSH1 0x60 DUP3 ADD MSTORE PUSH1 0x80 ADD SWAP1 JUMP JUMPDEST PUSH1 0x0 DUP4 MLOAD PUSH2 0x15C3 DUP2 DUP5 PUSH1 0x20 DUP9 ADD PUSH2 0x1219 JUMP JUMPDEST DUP4 MLOAD SWAP1 DUP4 ADD SWAP1 PUSH2 0x15D7 DUP2 DUP4 PUSH1 0x20 DUP9 ADD PUSH2 0x1219 JUMP JUMPDEST ADD SWAP5 SWAP4 POP POP POP POP JUMP JUMPDEST PUSH1 0xE0 PUSH1 0x2 EXP PUSH4 0x4E487B71 MUL PUSH1 0x0 MSTORE PUSH1 0x11 PUSH1 0x4 MSTORE PUSH1 0x24 PUSH1 0x0 REVERT JUMPDEST PUSH1 0x0 DUP3 DUP3 LT ISZERO PUSH2 0x160B JUMPI PUSH2 0x160B PUSH2 0x15E0 JUMP JUMPDEST POP SUB SWAP1 JUMP JUMPDEST PUSH1 0x0 DUP3 NOT DUP3 GT ISZERO PUSH2 0x1623 JUMPI PUSH2 0x1623 PUSH2 0x15E0 JUMP JUMPDEST POP ADD SWAP1 JUMP JUMPDEST PUSH1 0x20 DUP1 DUP3 MSTORE PUSH1 0x32 SWAP1 DUP3 ADD MSTORE PUSH32 0x4552433732313A207472616E7366657220746F206E6F6E204552433732315265 PUSH1 0x40 DUP3 ADD MSTORE PUSH32 0x63656976657220696D706C656D656E7465720000000000000000000000000000 PUSH1 0x60 DUP3 ADD MSTORE PUSH1 0x80 ADD SWAP1 JUMP JUMPDEST PUSH1 0x0 PUSH1 0x1 PUSH1 0xA0 PUSH1 0x2 EXP SUB DUP1 DUP8 AND DUP4 MSTORE DUP1 DUP7 AND PUSH1 0x20 DUP5 ADD MSTORE POP DUP4 PUSH1 0x40 DUP4 ADD MSTORE PUSH1 0x80 PUSH1 0x60 DUP4 ADD MSTORE PUSH2 0x16B7 PUSH1 0x80 DUP4 ADD DUP5 PUSH2 0x1245 JUMP JUMPDEST SWAP7 SWAP6 POP POP POP POP POP POP JUMP JUMPDEST PUSH1 0x0 PUSH1 0x20 DUP3 DUP5 SUB SLT ISZERO PUSH2 0x16D3 JUMPI PUSH1 0x0 DUP1 REVERT JUMPDEST DUP2 MLOAD PUSH2 0x7F4 DUP2 PUSH2 0x11E6 JUMP JUMPDEST PUSH1 0x0 PUSH1 0x0 NOT DUP3 EQ ISZERO PUSH2 0x16F2 JUMPI PUSH2 0x16F2 PUSH2 0x15E0 JUMP JUMPDEST POP PUSH1 0x1 ADD SWAP1 JUMP JUMPDEST PUSH1 0xE0 PUSH1 0x2 EXP PUSH4 0x4E487B71 MUL PUSH1 0x0 MSTORE PUSH1 0x12 PUSH1 0x4 MSTORE PUSH1 0x24 PUSH1 0x0 REVERT JUMPDEST PUSH1 0x0 DUP3 PUSH2 0x1721 JUMPI PUSH2 0x1721 PUSH2 0x16F9 JUMP JUMPDEST POP DIV SWAP1 JUMP JUMPDEST PUSH1 0x0 DUP3 PUSH2 0x1735 JUMPI PUSH2 0x1735 PUSH2 0x16F9 JUMP JUMPDEST POP MOD SWAP1 JUMP JUMPDEST PUSH1 0xE0 PUSH1 0x2 EXP PUSH4 0x4E487B71 MUL PUSH1 0x0 MSTORE PUSH1 0x32 PUSH1 0x4 MSTORE PUSH1 0x24 PUSH1 0x0 REVERT INVALID LOG2 PUSH5 0x6970667358 0x22 SLT KECCAK256 0xA9 DUP15 AND DUP12 0xAF PUSH19 0xC3FE2F433D600220FD99D7FB9B36EC6F5FE261 PUSH32 0x3E3E2469BD4F64736F6C63430008090033000000000000000000000000000000 "
		},
		"gasEstimates": {
			"creation": {
				"codeDepositCost": "892400",
				"executionCost": "infinite",
				"totalCost": "infinite"
			},
			"external": {
				"AwardToken(uint32)": "infinite",
				"GetFinishNum()": "infinite",
				"PLAY_AMOUNT()": "288",
				"Vote(uint32,uint32)": "infinite",
				"getIsAwarded(uint32)": "950",
				"getIsFinish(uint32)": "928",
				"getPropName(uint32)": "infinite",
				"getPropoNum()": "473",
				"getSuccNum(address)": "802",
				"getVoteResult(uint32)": "941",
				"proposals(uint256)": "infinite",
				"propose(string,uint256)": "infinite",
				"setIsAwarded(uint32)": "20985",
				"studentERC20()": "579",
				"studentERC721()": "601",
				"succ_Map(address)": "750"
			}
		},
		"methodIdentifiers": {
			"AwardToken(uint32)": "8e24df9e",
			"GetFinishNum()": "8a7ff2f6",
			"PLAY_AMOUNT()": "e6978b50",
			"Vote(uint32,uint32)": "68f81fe0",
			"getIsAwarded(uint32)": "a6319167",
			"getIsFinish(uint32)": "2a9efc7e",
			"getPropName(uint32)": "14f0865a",
			"getPropoNum()": "40273cab",
			"getSuccNum(address)": "c57c8ebd",
			"getVoteResult(uint32)": "0289cac1",
			"proposals(uint256)": "013cf08b",
			"propose(string,uint256)": "8d1cb8b5",
			"setIsAwarded(uint32)": "05ff130a",
			"studentERC20()": "6c3fbb2d",
			"studentERC721()": "3901d2d4",
			"succ_Map(address)": "8db87c98"
		}
	},
	"abi": [
		{
			"inputs": [],
			"stateMutability": "nonpayable",
			"type": "constructor"
		},
		{
			"anonymous": false,
			"inputs": [
				{
					"indexed": false,
					"internalType": "uint32",
					"name": "proposalIndex",
					"type": "uint32"
				}
			],
			"name": "ProposalInitiated",
			"type": "event"
		},
		{
			"inputs": [
				{
					"internalType": "uint32",
					"name": "index",
					"type": "uint32"
				}
			],
			"name": "AwardToken",
			"outputs": [],
			"stateMutability": "nonpayable",
			"type": "function"
		},
		{
			"inputs": [],
			"name": "GetFinishNum",
			"outputs": [
				{
					"internalType": "uint32",
					"name": "",
					"type": "uint32"
				}
			],
			"stateMutability": "view",
			"type": "function"
		},
		{
			"inputs": [],
			"name": "PLAY_AMOUNT",
			"outputs": [
				{
					"internalType": "uint256",
					"name": "",
					"type": "uint256"
				}
			],
			"stateMutability": "view",
			"type": "function"
		},
		{
			"inputs": [
				{
					"internalType": "uint32",
					"name": "index",
					"type": "uint32"
				},
				{
					"internalType": "uint32",
					"name": "opin",
					"type": "uint32"
				}
			],
			"name": "Vote",
			"outputs": [],
			"stateMutability": "nonpayable",
			"type": "function"
		},
		{
			"inputs": [
				{
					"internalType": "uint32",
					"name": "index",
					"type": "uint32"
				}
			],
			"name": "getIsAwarded",
			"outputs": [
				{
					"internalType": "uint32",
					"name": "",
					"type": "uint32"
				}
			],
			"stateMutability": "view",
			"type": "function"
		},
		{
			"inputs": [
				{
					"internalType": "uint32",
					"name": "i",
					"type": "uint32"
				}
			],
			"name": "getIsFinish",
			"outputs": [
				{
					"internalType": "uint32",
					"name": "",
					"type": "uint32"
				}
			],
			"stateMutability": "view",
			"type": "function"
		},
		{
			"inputs": [
				{
					"internalType": "uint32",
					"name": "i",
					"type": "uint32"
				}
			],
			"name": "getPropName",
			"outputs": [
				{
					"internalType": "string",
					"name": "",
					"type": "string"
				}
			],
			"stateMutability": "view",
			"type": "function"
		},
		{
			"inputs": [],
			"name": "getPropoNum",
			"outputs": [
				{
					"internalType": "uint32",
					"name": "",
					"type": "uint32"
				}
			],
			"stateMutability": "view",
			"type": "function"
		},
		{
			"inputs": [
				{
					"internalType": "address",
					"name": "addr",
					"type": "address"
				}
			],
			"name": "getSuccNum",
			"outputs": [
				{
					"internalType": "uint32",
					"name": "",
					"type": "uint32"
				}
			],
			"stateMutability": "view",
			"type": "function"
		},
		{
			"inputs": [
				{
					"internalType": "uint32",
					"name": "i",
					"type": "uint32"
				}
			],
			"name": "getVoteResult",
			"outputs": [
				{
					"internalType": "uint32",
					"name": "",
					"type": "uint32"
				}
			],
			"stateMutability": "view",
			"type": "function"
		},
		{
			"inputs": [
				{
					"internalType": "uint256",
					"name": "",
					"type": "uint256"
				}
			],
			"name": "proposals",
			"outputs": [
				{
					"internalType": "uint32",
					"name": "index",
					"type": "uint32"
				},
				{
					"internalType": "address",
					"name": "proposer",
					"type": "address"
				},
				{
					"internalType": "uint256",
					"name": "startTime",
					"type": "uint256"
				},
				{
					"internalType": "uint256",
					"name": "endTime",
					"type": "uint256"
				},
				{
					"internalType": "string",
					"name": "name",
					"type": "string"
				},
				{
					"internalType": "uint32",
					"name": "vote",
					"type": "uint32"
				},
				{
					"internalType": "uint32",
					"name": "isAwarded",
					"type": "uint32"
				}
			],
			"stateMutability": "view",
			"type": "function"
		},
		{
			"inputs": [
				{
					"internalType": "string",
					"name": "name",
					"type": "string"
				},
				{
					"internalType": "uint256",
					"name": "duration",
					"type": "uint256"
				}
			],
			"name": "propose",
			"outputs": [],
			"stateMutability": "nonpayable",
			"type": "function"
		},
		{
			"inputs": [
				{
					"internalType": "uint32",
					"name": "index",
					"type": "uint32"
				}
			],
			"name": "setIsAwarded",
			"outputs": [],
			"stateMutability": "nonpayable",
			"type": "function"
		},
		{
			"inputs": [],
			"name": "studentERC20",
			"outputs": [
				{
					"internalType": "contract StuERC20",
					"name": "",
					"type": "address"
				}
			],
			"stateMutability": "view",
			"type": "function"
		},
		{
			"inputs": [],
			"name": "studentERC721",
			"outputs": [
				{
					"internalType": "contract StuERC721",
					"name": "",
					"type": "address"
				}
			],
			"stateMutability": "view",
			"type": "function"
		},
		{
			"inputs": [
				{
					"internalType": "address",
					"name": "",
					"type": "address"
				}
			],
			"name": "succ_Map",
			"outputs": [
				{
					"internalType": "uint32",
					"name": "",
					"type": "uint32"
				}
			],
			"stateMutability": "view",
			"type": "function"
		}
	]
}